{
  "_format": "hh-sol-artifact-1",
  "contractName": "X3Link",
  "sourceName": "contracts/x3.sol",
  "abi": [
    {
      "inputs": [
        {
          "internalType": "contract IEAS",
          "name": "eas",
          "type": "address"
        },
        {
          "internalType": "address[]",
          "name": "intialAttestors",
          "type": "address[]"
        }
      ],
      "stateMutability": "nonpayable",
      "type": "constructor"
    },
    {
      "inputs": [],
      "name": "AccessDenied",
      "type": "error"
    },
    {
      "inputs": [],
      "name": "InsufficientValue",
      "type": "error"
    },
    {
      "inputs": [],
      "name": "InvalidEAS",
      "type": "error"
    },
    {
      "inputs": [],
      "name": "InvalidLength",
      "type": "error"
    },
    {
      "inputs": [],
      "name": "NotPayable",
      "type": "error"
    },
    {
      "anonymous": false,
      "inputs": [
        {
          "indexed": false,
          "internalType": "uint256",
          "name": "id",
          "type": "uint256"
        },
        {
          "indexed": true,
          "internalType": "address",
          "name": "owner",
          "type": "address"
        },
        {
          "indexed": false,
          "internalType": "string",
          "name": "ipfs_hash",
          "type": "string"
        }
      ],
      "name": "LinkCreated",
      "type": "event"
    },
    {
      "inputs": [
        {
          "components": [
            {
              "internalType": "bytes32",
              "name": "uid",
              "type": "bytes32"
            },
            {
              "internalType": "bytes32",
              "name": "schema",
              "type": "bytes32"
            },
            {
              "internalType": "uint64",
              "name": "time",
              "type": "uint64"
            },
            {
              "internalType": "uint64",
              "name": "expirationTime",
              "type": "uint64"
            },
            {
              "internalType": "uint64",
              "name": "revocationTime",
              "type": "uint64"
            },
            {
              "internalType": "bytes32",
              "name": "refUID",
              "type": "bytes32"
            },
            {
              "internalType": "address",
              "name": "recipient",
              "type": "address"
            },
            {
              "internalType": "address",
              "name": "attester",
              "type": "address"
            },
            {
              "internalType": "bool",
              "name": "revocable",
              "type": "bool"
            },
            {
              "internalType": "bytes",
              "name": "data",
              "type": "bytes"
            }
          ],
          "internalType": "struct Attestation",
          "name": "attestation",
          "type": "tuple"
        }
      ],
      "name": "attest",
      "outputs": [
        {
          "internalType": "bool",
          "name": "",
          "type": "bool"
        }
      ],
      "stateMutability": "payable",
      "type": "function"
    },
    {
      "inputs": [
        {
          "internalType": "uint256",
          "name": "_id",
          "type": "uint256"
        },
        {
          "internalType": "string",
          "name": "_ipfs_hash",
          "type": "string"
        }
      ],
      "name": "changeIpfsHash",
      "outputs": [],
      "stateMutability": "nonpayable",
      "type": "function"
    },
    {
      "inputs": [
        {
          "internalType": "string",
          "name": "_ipfs_hash",
          "type": "string"
        }
      ],
      "name": "createLink",
      "outputs": [
        {
          "internalType": "uint256",
          "name": "",
          "type": "uint256"
        }
      ],
      "stateMutability": "nonpayable",
      "type": "function"
    },
    {
      "inputs": [
        {
          "internalType": "uint256",
          "name": "_id",
          "type": "uint256"
        }
      ],
      "name": "getLink",
      "outputs": [
        {
          "internalType": "address",
          "name": "",
          "type": "address"
        },
        {
          "internalType": "string",
          "name": "",
          "type": "string"
        }
      ],
      "stateMutability": "view",
      "type": "function"
    },
    {
      "inputs": [],
      "name": "isPayable",
      "outputs": [
        {
          "internalType": "bool",
          "name": "",
          "type": "bool"
        }
      ],
      "stateMutability": "pure",
      "type": "function"
    },
    {
      "inputs": [],
      "name": "linkCount",
      "outputs": [
        {
          "internalType": "uint256",
          "name": "",
          "type": "uint256"
        }
      ],
      "stateMutability": "view",
      "type": "function"
    },
    {
      "inputs": [
        {
          "components": [
            {
              "internalType": "bytes32",
              "name": "uid",
              "type": "bytes32"
            },
            {
              "internalType": "bytes32",
              "name": "schema",
              "type": "bytes32"
            },
            {
              "internalType": "uint64",
              "name": "time",
              "type": "uint64"
            },
            {
              "internalType": "uint64",
              "name": "expirationTime",
              "type": "uint64"
            },
            {
              "internalType": "uint64",
              "name": "revocationTime",
              "type": "uint64"
            },
            {
              "internalType": "bytes32",
              "name": "refUID",
              "type": "bytes32"
            },
            {
              "internalType": "address",
              "name": "recipient",
              "type": "address"
            },
            {
              "internalType": "address",
              "name": "attester",
              "type": "address"
            },
            {
              "internalType": "bool",
              "name": "revocable",
              "type": "bool"
            },
            {
              "internalType": "bytes",
              "name": "data",
              "type": "bytes"
            }
          ],
          "internalType": "struct Attestation[]",
          "name": "attestations",
          "type": "tuple[]"
        },
        {
          "internalType": "uint256[]",
          "name": "values",
          "type": "uint256[]"
        }
      ],
      "name": "multiAttest",
      "outputs": [
        {
          "internalType": "bool",
          "name": "",
          "type": "bool"
        }
      ],
      "stateMutability": "payable",
      "type": "function"
    },
    {
      "inputs": [
        {
          "components": [
            {
              "internalType": "bytes32",
              "name": "uid",
              "type": "bytes32"
            },
            {
              "internalType": "bytes32",
              "name": "schema",
              "type": "bytes32"
            },
            {
              "internalType": "uint64",
              "name": "time",
              "type": "uint64"
            },
            {
              "internalType": "uint64",
              "name": "expirationTime",
              "type": "uint64"
            },
            {
              "internalType": "uint64",
              "name": "revocationTime",
              "type": "uint64"
            },
            {
              "internalType": "bytes32",
              "name": "refUID",
              "type": "bytes32"
            },
            {
              "internalType": "address",
              "name": "recipient",
              "type": "address"
            },
            {
              "internalType": "address",
              "name": "attester",
              "type": "address"
            },
            {
              "internalType": "bool",
              "name": "revocable",
              "type": "bool"
            },
            {
              "internalType": "bytes",
              "name": "data",
              "type": "bytes"
            }
          ],
          "internalType": "struct Attestation[]",
          "name": "attestations",
          "type": "tuple[]"
        },
        {
          "internalType": "uint256[]",
          "name": "values",
          "type": "uint256[]"
        }
      ],
      "name": "multiRevoke",
      "outputs": [
        {
          "internalType": "bool",
          "name": "",
          "type": "bool"
        }
      ],
      "stateMutability": "payable",
      "type": "function"
    },
    {
      "inputs": [
        {
          "components": [
            {
              "internalType": "bytes32",
              "name": "uid",
              "type": "bytes32"
            },
            {
              "internalType": "bytes32",
              "name": "schema",
              "type": "bytes32"
            },
            {
              "internalType": "uint64",
              "name": "time",
              "type": "uint64"
            },
            {
              "internalType": "uint64",
              "name": "expirationTime",
              "type": "uint64"
            },
            {
              "internalType": "uint64",
              "name": "revocationTime",
              "type": "uint64"
            },
            {
              "internalType": "bytes32",
              "name": "refUID",
              "type": "bytes32"
            },
            {
              "internalType": "address",
              "name": "recipient",
              "type": "address"
            },
            {
              "internalType": "address",
              "name": "attester",
              "type": "address"
            },
            {
              "internalType": "bool",
              "name": "revocable",
              "type": "bool"
            },
            {
              "internalType": "bytes",
              "name": "data",
              "type": "bytes"
            }
          ],
          "internalType": "struct Attestation",
          "name": "attestation",
          "type": "tuple"
        }
      ],
      "name": "revoke",
      "outputs": [
        {
          "internalType": "bool",
          "name": "",
          "type": "bool"
        }
      ],
      "stateMutability": "payable",
      "type": "function"
    },
    {
      "inputs": [],
      "name": "version",
      "outputs": [
        {
          "internalType": "string",
          "name": "",
          "type": "string"
        }
      ],
      "stateMutability": "view",
      "type": "function"
    },
    {
      "inputs": [
        {
          "internalType": "address",
          "name": "attester",
          "type": "address"
        }
      ],
      "name": "voteAttester",
      "outputs": [],
      "stateMutability": "nonpayable",
      "type": "function"
    },
    {
      "stateMutability": "payable",
      "type": "receive"
    }
  ],
  "bytecode": "0x6101006040523480156200001257600080fd5b5060405162001cf338038062001cf38339818101604052810190620000389190620003b7565b8160016003600082608081815250508160a081815250508060c08181525050505050600073ffffffffffffffffffffffffffffffffffffffff168173ffffffffffffffffffffffffffffffffffffffff1603620000c1576040517f83780ffe00000000000000000000000000000000000000000000000000000000815260040160405180910390fd5b8073ffffffffffffffffffffffffffffffffffffffff1660e08173ffffffffffffffffffffffffffffffffffffffff16815250505060005b81518110156200017b576003600260008484815181106200011f576200011e6200041d565b5b602002602001015173ffffffffffffffffffffffffffffffffffffffff1673ffffffffffffffffffffffffffffffffffffffff168152602001908152602001600020819055508080620001729062000485565b915050620000f9565b505050620004d2565b6000604051905090565b600080fd5b600080fd5b600073ffffffffffffffffffffffffffffffffffffffff82169050919050565b6000620001c58262000198565b9050919050565b6000620001d982620001b8565b9050919050565b620001eb81620001cc565b8114620001f757600080fd5b50565b6000815190506200020b81620001e0565b92915050565b600080fd5b6000601f19601f8301169050919050565b7f4e487b7100000000000000000000000000000000000000000000000000000000600052604160045260246000fd5b620002618262000216565b810181811067ffffffffffffffff8211171562000283576200028262000227565b5b80604052505050565b60006200029862000184565b9050620002a6828262000256565b919050565b600067ffffffffffffffff821115620002c957620002c862000227565b5b602082029050602081019050919050565b600080fd5b620002ea81620001b8565b8114620002f657600080fd5b50565b6000815190506200030a81620002df565b92915050565b6000620003276200032184620002ab565b6200028c565b905080838252602082019050602084028301858111156200034d576200034c620002da565b5b835b818110156200037a5780620003658882620002f9565b8452602084019350506020810190506200034f565b5050509392505050565b600082601f8301126200039c576200039b62000211565b5b8151620003ae84826020860162000310565b91505092915050565b60008060408385031215620003d157620003d06200018e565b5b6000620003e185828601620001fa565b925050602083015167ffffffffffffffff81111562000405576200040462000193565b5b620004138582860162000384565b9150509250929050565b7f4e487b7100000000000000000000000000000000000000000000000000000000600052603260045260246000fd5b7f4e487b7100000000000000000000000000000000000000000000000000000000600052601160045260246000fd5b6000819050919050565b600062000492826200047b565b91507fffffffffffffffffffffffffffffffffffffffffffffffffffffffffffffffff8203620004c757620004c66200044c565b5b600182019050919050565b60805160a05160c05160e0516117e76200050c60003960006109a80152600061043d01526000610414015260006103eb01526117e76000f3fe6080604052600436106100a05760003560e01c8063951130661161006457806395113066146101dc578063aac4767914610219578063adea0e1214610244578063ce46e0461461026d578063e49617e114610298578063e60c3505146102c8576100e5565b8063393b6df3146100ea57806353fbd9f71461012857806354fd4d501461015157806388e5b2d91461017c57806391db0b7e146101ac576100e5565b366100e5576100ad6102f8565b6100e3576040517f1574f9f300000000000000000000000000000000000000000000000000000000815260040160405180910390fd5b005b600080fd5b3480156100f657600080fd5b50610111600480360381019061010c9190610cb7565b6102fd565b60405161011f929190610db5565b60405180910390f35b34801561013457600080fd5b5061014f600480360381019061014a9190610e11565b6103e1565b005b34801561015d57600080fd5b506101666103e4565b6040516101739190610e3e565b60405180910390f35b61019660048036038101906101919190610f1b565b610487565b6040516101a39190610fb7565b60405180910390f35b6101c660048036038101906101c19190610f1b565b6105a2565b6040516101d39190610fb7565b60405180910390f35b3480156101e857600080fd5b5061020360048036038101906101fe9190611102565b6106bd565b604051610210919061115a565b60405180910390f35b34801561022557600080fd5b5061022e6107d2565b60405161023b919061115a565b60405180910390f35b34801561025057600080fd5b5061026b60048036038101906102669190611175565b6107d8565b005b34801561027957600080fd5b506102826102f8565b60405161028f9190610fb7565b60405180910390f35b6102b260048036038101906102ad91906111f6565b6108a2565b6040516102bf9190610fb7565b60405180910390f35b6102e260048036038101906102dd91906111f6565b6108bd565b6040516102ef9190610fb7565b60405180910390f35b600090565b6000606060008084815260200190815260200160002060000160009054906101000a900473ffffffffffffffffffffffffffffffffffffffff166000808581526020019081526020016000206001018080546103589061126e565b80601f01602080910402602001604051908101604052809291908181526020018280546103849061126e565b80156103d15780601f106103a6576101008083540402835291602001916103d1565b820191906000526020600020905b8154815290600101906020018083116103b457829003601f168201915b5050505050905091509150915091565b50565b606061040f7f00000000000000000000000000000000000000000000000000000000000000006108d8565b6104387f00000000000000000000000000000000000000000000000000000000000000006108d8565b6104617f00000000000000000000000000000000000000000000000000000000000000006108d8565b60405160200161047393929190611327565b604051602081830303815290604052905090565b60006104916109a6565b60008585905090508383905081146104d5576040517f947d5a8400000000000000000000000000000000000000000000000000000000815260040160405180910390fd5b600034905060005b828110156105925760008686838181106104fa576104f961136e565b5b9050602002013590508281111561053d576040517f1101129400000000000000000000000000000000000000000000000000000000815260040160405180910390fd5b61056b8989848181106105535761055261136e565b5b905060200281019061056591906113a2565b82610a2d565b61057c57600094505050505061059a565b80830392505061058b81610a39565b90506104dd565b506001925050505b949350505050565b60006105ac6109a6565b60008585905090508383905081146105f0576040517f947d5a8400000000000000000000000000000000000000000000000000000000815260040160405180910390fd5b600034905060005b828110156106ad5760008686838181106106155761061461136e565b5b90506020020135905082811115610658576040517f1101129400000000000000000000000000000000000000000000000000000000815260040160405180910390fd5b61068689898481811061066e5761066d61136e565b5b905060200281019061068091906113a2565b82610a46565b6106975760009450505050506106b5565b8083039250506106a681610a39565b90506105f8565b506001925050505b949350505050565b600060405180604001604052803373ffffffffffffffffffffffffffffffffffffffff16815260200183815250600080600154815260200190815260200160002060008201518160000160006101000a81548173ffffffffffffffffffffffffffffffffffffffff021916908373ffffffffffffffffffffffffffffffffffffffff160217905550602082015181600101908161075a9190611577565b509050503373ffffffffffffffffffffffffffffffffffffffff167f889fdbc17bb0712b856198c101b998b9c25f5a0e6ca0e2307f8201035feb4446600154846040516107a8929190611649565b60405180910390a2600160008154809291906107c3906116a8565b91905055506001549050919050565b60015481565b60008083815260200190815260200160002060000160009054906101000a900473ffffffffffffffffffffffffffffffffffffffff1673ffffffffffffffffffffffffffffffffffffffff163373ffffffffffffffffffffffffffffffffffffffff161461087b576040517f08c379a000000000000000000000000000000000000000000000000000000000815260040161087290611762565b60405180910390fd5b80600080848152602001908152602001600020600101908161089d9190611577565b505050565b60006108ac6109a6565b6108b68234610a2d565b9050919050565b60006108c76109a6565b6108d18234610a46565b9050919050565b6060600060016108e784610b1a565b01905060008167ffffffffffffffff81111561090657610905610fd7565b5b6040519080825280601f01601f1916602001820160405280156109385781602001600182028036833780820191505090505b509050600082602001820190505b60011561099b578080600190039150507f3031323334353637383961626364656600000000000000000000000000000000600a86061a8153600a858161098f5761098e611782565b5b04945060008503610946575b819350505050919050565b7f000000000000000000000000000000000000000000000000000000000000000073ffffffffffffffffffffffffffffffffffffffff163373ffffffffffffffffffffffffffffffffffffffff1614610a2b576040517f4ca8886700000000000000000000000000000000000000000000000000000000815260040160405180910390fd5b565b60006001905092915050565b6000600182019050919050565b60006001600260008560e0016020810190610a619190610e11565b73ffffffffffffffffffffffffffffffffffffffff1673ffffffffffffffffffffffffffffffffffffffff1681526020019081526020016000205410610b0f57600260008460e0016020810190610ab89190610e11565b73ffffffffffffffffffffffffffffffffffffffff1673ffffffffffffffffffffffffffffffffffffffff16815260200190815260200160002060008154610aff906116a8565b9190508190555060019050610b14565b600090505b92915050565b600080600090507a184f03e93ff9f4daa797ed6e38ed64bf6a1f0100000000000000008310610b78577a184f03e93ff9f4daa797ed6e38ed64bf6a1f0100000000000000008381610b6e57610b6d611782565b5b0492506040810190505b6d04ee2d6d415b85acef81000000008310610bb5576d04ee2d6d415b85acef81000000008381610bab57610baa611782565b5b0492506020810190505b662386f26fc100008310610be457662386f26fc100008381610bda57610bd9611782565b5b0492506010810190505b6305f5e1008310610c0d576305f5e1008381610c0357610c02611782565b5b0492506008810190505b6127108310610c32576127108381610c2857610c27611782565b5b0492506004810190505b60648310610c555760648381610c4b57610c4a611782565b5b0492506002810190505b600a8310610c64576001810190505b80915050919050565b6000604051905090565b600080fd5b600080fd5b6000819050919050565b610c9481610c81565b8114610c9f57600080fd5b50565b600081359050610cb181610c8b565b92915050565b600060208284031215610ccd57610ccc610c77565b5b6000610cdb84828501610ca2565b91505092915050565b600073ffffffffffffffffffffffffffffffffffffffff82169050919050565b6000610d0f82610ce4565b9050919050565b610d1f81610d04565b82525050565b600081519050919050565b600082825260208201905092915050565b60005b83811015610d5f578082015181840152602081019050610d44565b60008484015250505050565b6000601f19601f8301169050919050565b6000610d8782610d25565b610d918185610d30565b9350610da1818560208601610d41565b610daa81610d6b565b840191505092915050565b6000604082019050610dca6000830185610d16565b8181036020830152610ddc8184610d7c565b90509392505050565b610dee81610d04565b8114610df957600080fd5b50565b600081359050610e0b81610de5565b92915050565b600060208284031215610e2757610e26610c77565b5b6000610e3584828501610dfc565b91505092915050565b60006020820190508181036000830152610e588184610d7c565b905092915050565b600080fd5b600080fd5b600080fd5b60008083601f840112610e8557610e84610e60565b5b8235905067ffffffffffffffff811115610ea257610ea1610e65565b5b602083019150836020820283011115610ebe57610ebd610e6a565b5b9250929050565b60008083601f840112610edb57610eda610e60565b5b8235905067ffffffffffffffff811115610ef857610ef7610e65565b5b602083019150836020820283011115610f1457610f13610e6a565b5b9250929050565b60008060008060408587031215610f3557610f34610c77565b5b600085013567ffffffffffffffff811115610f5357610f52610c7c565b5b610f5f87828801610e6f565b9450945050602085013567ffffffffffffffff811115610f8257610f81610c7c565b5b610f8e87828801610ec5565b925092505092959194509250565b60008115159050919050565b610fb181610f9c565b82525050565b6000602082019050610fcc6000830184610fa8565b92915050565b600080fd5b7f4e487b7100000000000000000000000000000000000000000000000000000000600052604160045260246000fd5b61100f82610d6b565b810181811067ffffffffffffffff8211171561102e5761102d610fd7565b5b80604052505050565b6000611041610c6d565b905061104d8282611006565b919050565b600067ffffffffffffffff82111561106d5761106c610fd7565b5b61107682610d6b565b9050602081019050919050565b82818337600083830152505050565b60006110a56110a084611052565b611037565b9050828152602081018484840111156110c1576110c0610fd2565b5b6110cc848285611083565b509392505050565b600082601f8301126110e9576110e8610e60565b5b81356110f9848260208601611092565b91505092915050565b60006020828403121561111857611117610c77565b5b600082013567ffffffffffffffff81111561113657611135610c7c565b5b611142848285016110d4565b91505092915050565b61115481610c81565b82525050565b600060208201905061116f600083018461114b565b92915050565b6000806040838503121561118c5761118b610c77565b5b600061119a85828601610ca2565b925050602083013567ffffffffffffffff8111156111bb576111ba610c7c565b5b6111c7858286016110d4565b9150509250929050565b600080fd5b600061014082840312156111ed576111ec6111d1565b5b81905092915050565b60006020828403121561120c5761120b610c77565b5b600082013567ffffffffffffffff81111561122a57611229610c7c565b5b611236848285016111d6565b91505092915050565b7f4e487b7100000000000000000000000000000000000000000000000000000000600052602260045260246000fd5b6000600282049050600182168061128657607f821691505b6020821081036112995761129861123f565b5b50919050565b600081905092915050565b60006112b582610d25565b6112bf818561129f565b93506112cf818560208601610d41565b80840191505092915050565b7f2e00000000000000000000000000000000000000000000000000000000000000600082015250565b600061131160018361129f565b915061131c826112db565b600182019050919050565b600061133382866112aa565b915061133e82611304565b915061134a82856112aa565b915061135582611304565b915061136182846112aa565b9150819050949350505050565b7f4e487b7100000000000000000000000000000000000000000000000000000000600052603260045260246000fd5b600080fd5b600082356001610140038336030381126113bf576113be61139d565b5b80830191505092915050565b60008190508160005260206000209050919050565b60006020601f8301049050919050565b600082821b905092915050565b60006008830261142d7fffffffffffffffffffffffffffffffffffffffffffffffffffffffffffffffff826113f0565b61143786836113f0565b95508019841693508086168417925050509392505050565b6000819050919050565b600061147461146f61146a84610c81565b61144f565b610c81565b9050919050565b6000819050919050565b61148e83611459565b6114a261149a8261147b565b8484546113fd565b825550505050565b600090565b6114b76114aa565b6114c2818484611485565b505050565b5b818110156114e6576114db6000826114af565b6001810190506114c8565b5050565b601f82111561152b576114fc816113cb565b611505846113e0565b81016020851015611514578190505b611528611520856113e0565b8301826114c7565b50505b505050565b600082821c905092915050565b600061154e60001984600802611530565b1980831691505092915050565b6000611567838361153d565b9150826002028217905092915050565b61158082610d25565b67ffffffffffffffff81111561159957611598610fd7565b5b6115a3825461126e565b6115ae8282856114ea565b600060209050601f8311600181146115e157600084156115cf578287015190505b6115d9858261155b565b865550611641565b601f1984166115ef866113cb565b60005b82811015611617578489015182556001820191506020850194506020810190506115f2565b868310156116345784890151611630601f89168261153d565b8355505b6001600288020188555050505b505050505050565b600060408201905061165e600083018561114b565b81810360208301526116708184610d7c565b90509392505050565b7f4e487b7100000000000000000000000000000000000000000000000000000000600052601160045260246000fd5b60006116b382610c81565b91507fffffffffffffffffffffffffffffffffffffffffffffffffffffffffffffffff82036116e5576116e4611679565b5b600182019050919050565b7f4f6e6c7920746865206f776e65722063616e206368616e67652074686520697060008201527f66735f6861736800000000000000000000000000000000000000000000000000602082015250565b600061174c602783610d30565b9150611757826116f0565b604082019050919050565b6000602082019050818103600083015261177b8161173f565b9050919050565b7f4e487b7100000000000000000000000000000000000000000000000000000000600052601260045260246000fdfea264697066735822122037eee59d2f7a52b99f3b31f2cae07970769ea8aefa7323045d9d19dba3664c7d64736f6c63430008130033",
  "linkReferences": {},
  "deployedLinkReferences": {}
}