{"contracts/x3.sol":{"X3Link":{"abi":[{"inputs":[{"internalType":"contract IEAS","name":"eas","type":"address"},{"internalType":"address[]","name":"intialAttestors","type":"address[]"}],"stateMutability":"nonpayable","type":"constructor"},{"inputs":[],"name":"AccessDenied","type":"error"},{"inputs":[],"name":"InsufficientValue","type":"error"},{"inputs":[],"name":"InvalidEAS","type":"error"},{"inputs":[],"name":"InvalidLength","type":"error"},{"inputs":[],"name":"NotPayable","type":"error"},{"anonymous":false,"inputs":[{"indexed":false,"internalType":"uint256","name":"id","type":"uint256"},{"indexed":true,"internalType":"address","name":"owner","type":"address"},{"indexed":false,"internalType":"string","name":"ipfs_hash","type":"string"}],"name":"LinkCreated","type":"event"},{"inputs":[{"components":[{"internalType":"bytes32","name":"uid","type":"bytes32"},{"internalType":"bytes32","name":"schema","type":"bytes32"},{"internalType":"uint64","name":"time","type":"uint64"},{"internalType":"uint64","name":"expirationTime","type":"uint64"},{"internalType":"uint64","name":"revocationTime","type":"uint64"},{"internalType":"bytes32","name":"refUID","type":"bytes32"},{"internalType":"address","name":"recipient","type":"address"},{"internalType":"address","name":"attester","type":"address"},{"internalType":"bool","name":"revocable","type":"bool"},{"internalType":"bytes","name":"data","type":"bytes"}],"internalType":"struct Attestation","name":"attestation","type":"tuple"}],"name":"attest","outputs":[{"internalType":"bool","name":"","type":"bool"}],"stateMutability":"payable","type":"function"},{"inputs":[{"internalType":"uint256","name":"_id","type":"uint256"},{"internalType":"string","name":"_ipfs_hash","type":"string"}],"name":"changeIpfsHash","outputs":[],"stateMutability":"nonpayable","type":"function"},{"inputs":[{"internalType":"string","name":"_ipfs_hash","type":"string"}],"name":"createLink","outputs":[{"internalType":"uint256","name":"","type":"uint256"}],"stateMutability":"nonpayable","type":"function"},{"inputs":[{"internalType":"uint256","name":"_id","type":"uint256"}],"name":"getLink","outputs":[{"internalType":"address","name":"","type":"address"},{"internalType":"string","name":"","type":"string"}],"stateMutability":"view","type":"function"},{"inputs":[],"name":"isPayable","outputs":[{"internalType":"bool","name":"","type":"bool"}],"stateMutability":"pure","type":"function"},{"inputs":[],"name":"linkCount","outputs":[{"internalType":"uint256","name":"","type":"uint256"}],"stateMutability":"view","type":"function"},{"inputs":[{"components":[{"internalType":"bytes32","name":"uid","type":"bytes32"},{"internalType":"bytes32","name":"schema","type":"bytes32"},{"internalType":"uint64","name":"time","type":"uint64"},{"internalType":"uint64","name":"expirationTime","type":"uint64"},{"internalType":"uint64","name":"revocationTime","type":"uint64"},{"internalType":"bytes32","name":"refUID","type":"bytes32"},{"internalType":"address","name":"recipient","type":"address"},{"internalType":"address","name":"attester","type":"address"},{"internalType":"bool","name":"revocable","type":"bool"},{"internalType":"bytes","name":"data","type":"bytes"}],"internalType":"struct Attestation[]","name":"attestations","type":"tuple[]"},{"internalType":"uint256[]","name":"values","type":"uint256[]"}],"name":"multiAttest","outputs":[{"internalType":"bool","name":"","type":"bool"}],"stateMutability":"payable","type":"function"},{"inputs":[{"components":[{"internalType":"bytes32","name":"uid","type":"bytes32"},{"internalType":"bytes32","name":"schema","type":"bytes32"},{"internalType":"uint64","name":"time","type":"uint64"},{"internalType":"uint64","name":"expirationTime","type":"uint64"},{"internalType":"uint64","name":"revocationTime","type":"uint64"},{"internalType":"bytes32","name":"refUID","type":"bytes32"},{"internalType":"address","name":"recipient","type":"address"},{"internalType":"address","name":"attester","type":"address"},{"internalType":"bool","name":"revocable","type":"bool"},{"internalType":"bytes","name":"data","type":"bytes"}],"internalType":"struct Attestation[]","name":"attestations","type":"tuple[]"},{"internalType":"uint256[]","name":"values","type":"uint256[]"}],"name":"multiRevoke","outputs":[{"internalType":"bool","name":"","type":"bool"}],"stateMutability":"payable","type":"function"},{"inputs":[{"components":[{"internalType":"bytes32","name":"uid","type":"bytes32"},{"internalType":"bytes32","name":"schema","type":"bytes32"},{"internalType":"uint64","name":"time","type":"uint64"},{"internalType":"uint64","name":"expirationTime","type":"uint64"},{"internalType":"uint64","name":"revocationTime","type":"uint64"},{"internalType":"bytes32","name":"refUID","type":"bytes32"},{"internalType":"address","name":"recipient","type":"address"},{"internalType":"address","name":"attester","type":"address"},{"internalType":"bool","name":"revocable","type":"bool"},{"internalType":"bytes","name":"data","type":"bytes"}],"internalType":"struct Attestation","name":"attestation","type":"tuple"}],"name":"revoke","outputs":[{"internalType":"bool","name":"","type":"bool"}],"stateMutability":"payable","type":"function"},{"inputs":[],"name":"version","outputs":[{"internalType":"string","name":"","type":"string"}],"stateMutability":"view","type":"function"},{"inputs":[{"internalType":"address","name":"attester","type":"address"}],"name":"voteAttester","outputs":[],"stateMutability":"nonpayable","type":"function"},{"stateMutability":"payable","type":"receive"}],"evm":{"bytecode":{"linkReferences":{},"object":"6101006040523480156200001257600080fd5b5060405162001cf338038062001cf38339818101604052810190620000389190620003b7565b8160016003600082608081815250508160a081815250508060c08181525050505050600073ffffffffffffffffffffffffffffffffffffffff168173ffffffffffffffffffffffffffffffffffffffff1603620000c1576040517f83780ffe00000000000000000000000000000000000000000000000000000000815260040160405180910390fd5b8073ffffffffffffffffffffffffffffffffffffffff1660e08173ffffffffffffffffffffffffffffffffffffffff16815250505060005b81518110156200017b576003600260008484815181106200011f576200011e6200041d565b5b602002602001015173ffffffffffffffffffffffffffffffffffffffff1673ffffffffffffffffffffffffffffffffffffffff168152602001908152602001600020819055508080620001729062000485565b915050620000f9565b505050620004d2565b6000604051905090565b600080fd5b600080fd5b600073ffffffffffffffffffffffffffffffffffffffff82169050919050565b6000620001c58262000198565b9050919050565b6000620001d982620001b8565b9050919050565b620001eb81620001cc565b8114620001f757600080fd5b50565b6000815190506200020b81620001e0565b92915050565b600080fd5b6000601f19601f8301169050919050565b7f4e487b7100000000000000000000000000000000000000000000000000000000600052604160045260246000fd5b620002618262000216565b810181811067ffffffffffffffff8211171562000283576200028262000227565b5b80604052505050565b60006200029862000184565b9050620002a6828262000256565b919050565b600067ffffffffffffffff821115620002c957620002c862000227565b5b602082029050602081019050919050565b600080fd5b620002ea81620001b8565b8114620002f657600080fd5b50565b6000815190506200030a81620002df565b92915050565b6000620003276200032184620002ab565b6200028c565b905080838252602082019050602084028301858111156200034d576200034c620002da565b5b835b818110156200037a5780620003658882620002f9565b8452602084019350506020810190506200034f565b5050509392505050565b600082601f8301126200039c576200039b62000211565b5b8151620003ae84826020860162000310565b91505092915050565b60008060408385031215620003d157620003d06200018e565b5b6000620003e185828601620001fa565b925050602083015167ffffffffffffffff81111562000405576200040462000193565b5b620004138582860162000384565b9150509250929050565b7f4e487b7100000000000000000000000000000000000000000000000000000000600052603260045260246000fd5b7f4e487b7100000000000000000000000000000000000000000000000000000000600052601160045260246000fd5b6000819050919050565b600062000492826200047b565b91507fffffffffffffffffffffffffffffffffffffffffffffffffffffffffffffffff8203620004c757620004c66200044c565b5b600182019050919050565b60805160a05160c05160e0516117e76200050c60003960006109a80152600061043d01526000610414015260006103eb01526117e76000f3fe6080604052600436106100a05760003560e01c8063951130661161006457806395113066146101dc578063aac4767914610219578063adea0e1214610244578063ce46e0461461026d578063e49617e114610298578063e60c3505146102c8576100e5565b8063393b6df3146100ea57806353fbd9f71461012857806354fd4d501461015157806388e5b2d91461017c57806391db0b7e146101ac576100e5565b366100e5576100ad6102f8565b6100e3576040517f1574f9f300000000000000000000000000000000000000000000000000000000815260040160405180910390fd5b005b600080fd5b3480156100f657600080fd5b50610111600480360381019061010c9190610cb7565b6102fd565b60405161011f929190610db5565b60405180910390f35b34801561013457600080fd5b5061014f600480360381019061014a9190610e11565b6103e1565b005b34801561015d57600080fd5b506101666103e4565b6040516101739190610e3e565b60405180910390f35b61019660048036038101906101919190610f1b565b610487565b6040516101a39190610fb7565b60405180910390f35b6101c660048036038101906101c19190610f1b565b6105a2565b6040516101d39190610fb7565b60405180910390f35b3480156101e857600080fd5b5061020360048036038101906101fe9190611102565b6106bd565b604051610210919061115a565b60405180910390f35b34801561022557600080fd5b5061022e6107d2565b60405161023b919061115a565b60405180910390f35b34801561025057600080fd5b5061026b60048036038101906102669190611175565b6107d8565b005b34801561027957600080fd5b506102826102f8565b60405161028f9190610fb7565b60405180910390f35b6102b260048036038101906102ad91906111f6565b6108a2565b6040516102bf9190610fb7565b60405180910390f35b6102e260048036038101906102dd91906111f6565b6108bd565b6040516102ef9190610fb7565b60405180910390f35b600090565b6000606060008084815260200190815260200160002060000160009054906101000a900473ffffffffffffffffffffffffffffffffffffffff166000808581526020019081526020016000206001018080546103589061126e565b80601f01602080910402602001604051908101604052809291908181526020018280546103849061126e565b80156103d15780601f106103a6576101008083540402835291602001916103d1565b820191906000526020600020905b8154815290600101906020018083116103b457829003601f168201915b5050505050905091509150915091565b50565b606061040f7f00000000000000000000000000000000000000000000000000000000000000006108d8565b6104387f00000000000000000000000000000000000000000000000000000000000000006108d8565b6104617f00000000000000000000000000000000000000000000000000000000000000006108d8565b60405160200161047393929190611327565b604051602081830303815290604052905090565b60006104916109a6565b60008585905090508383905081146104d5576040517f947d5a8400000000000000000000000000000000000000000000000000000000815260040160405180910390fd5b600034905060005b828110156105925760008686838181106104fa576104f961136e565b5b9050602002013590508281111561053d576040517f1101129400000000000000000000000000000000000000000000000000000000815260040160405180910390fd5b61056b8989848181106105535761055261136e565b5b905060200281019061056591906113a2565b82610a2d565b61057c57600094505050505061059a565b80830392505061058b81610a39565b90506104dd565b506001925050505b949350505050565b60006105ac6109a6565b60008585905090508383905081146105f0576040517f947d5a8400000000000000000000000000000000000000000000000000000000815260040160405180910390fd5b600034905060005b828110156106ad5760008686838181106106155761061461136e565b5b90506020020135905082811115610658576040517f1101129400000000000000000000000000000000000000000000000000000000815260040160405180910390fd5b61068689898481811061066e5761066d61136e565b5b905060200281019061068091906113a2565b82610a46565b6106975760009450505050506106b5565b8083039250506106a681610a39565b90506105f8565b506001925050505b949350505050565b600060405180604001604052803373ffffffffffffffffffffffffffffffffffffffff16815260200183815250600080600154815260200190815260200160002060008201518160000160006101000a81548173ffffffffffffffffffffffffffffffffffffffff021916908373ffffffffffffffffffffffffffffffffffffffff160217905550602082015181600101908161075a9190611577565b509050503373ffffffffffffffffffffffffffffffffffffffff167f889fdbc17bb0712b856198c101b998b9c25f5a0e6ca0e2307f8201035feb4446600154846040516107a8929190611649565b60405180910390a2600160008154809291906107c3906116a8565b91905055506001549050919050565b60015481565b60008083815260200190815260200160002060000160009054906101000a900473ffffffffffffffffffffffffffffffffffffffff1673ffffffffffffffffffffffffffffffffffffffff163373ffffffffffffffffffffffffffffffffffffffff161461087b576040517f08c379a000000000000000000000000000000000000000000000000000000000815260040161087290611762565b60405180910390fd5b80600080848152602001908152602001600020600101908161089d9190611577565b505050565b60006108ac6109a6565b6108b68234610a2d565b9050919050565b60006108c76109a6565b6108d18234610a46565b9050919050565b6060600060016108e784610b1a565b01905060008167ffffffffffffffff81111561090657610905610fd7565b5b6040519080825280601f01601f1916602001820160405280156109385781602001600182028036833780820191505090505b509050600082602001820190505b60011561099b578080600190039150507f3031323334353637383961626364656600000000000000000000000000000000600a86061a8153600a858161098f5761098e611782565b5b04945060008503610946575b819350505050919050565b7f000000000000000000000000000000000000000000000000000000000000000073ffffffffffffffffffffffffffffffffffffffff163373ffffffffffffffffffffffffffffffffffffffff1614610a2b576040517f4ca8886700000000000000000000000000000000000000000000000000000000815260040160405180910390fd5b565b60006001905092915050565b6000600182019050919050565b60006001600260008560e0016020810190610a619190610e11565b73ffffffffffffffffffffffffffffffffffffffff1673ffffffffffffffffffffffffffffffffffffffff1681526020019081526020016000205410610b0f57600260008460e0016020810190610ab89190610e11565b73ffffffffffffffffffffffffffffffffffffffff1673ffffffffffffffffffffffffffffffffffffffff16815260200190815260200160002060008154610aff906116a8565b9190508190555060019050610b14565b600090505b92915050565b600080600090507a184f03e93ff9f4daa797ed6e38ed64bf6a1f0100000000000000008310610b78577a184f03e93ff9f4daa797ed6e38ed64bf6a1f0100000000000000008381610b6e57610b6d611782565b5b0492506040810190505b6d04ee2d6d415b85acef81000000008310610bb5576d04ee2d6d415b85acef81000000008381610bab57610baa611782565b5b0492506020810190505b662386f26fc100008310610be457662386f26fc100008381610bda57610bd9611782565b5b0492506010810190505b6305f5e1008310610c0d576305f5e1008381610c0357610c02611782565b5b0492506008810190505b6127108310610c32576127108381610c2857610c27611782565b5b0492506004810190505b60648310610c555760648381610c4b57610c4a611782565b5b0492506002810190505b600a8310610c64576001810190505b80915050919050565b6000604051905090565b600080fd5b600080fd5b6000819050919050565b610c9481610c81565b8114610c9f57600080fd5b50565b600081359050610cb181610c8b565b92915050565b600060208284031215610ccd57610ccc610c77565b5b6000610cdb84828501610ca2565b91505092915050565b600073ffffffffffffffffffffffffffffffffffffffff82169050919050565b6000610d0f82610ce4565b9050919050565b610d1f81610d04565b82525050565b600081519050919050565b600082825260208201905092915050565b60005b83811015610d5f578082015181840152602081019050610d44565b60008484015250505050565b6000601f19601f8301169050919050565b6000610d8782610d25565b610d918185610d30565b9350610da1818560208601610d41565b610daa81610d6b565b840191505092915050565b6000604082019050610dca6000830185610d16565b8181036020830152610ddc8184610d7c565b90509392505050565b610dee81610d04565b8114610df957600080fd5b50565b600081359050610e0b81610de5565b92915050565b600060208284031215610e2757610e26610c77565b5b6000610e3584828501610dfc565b91505092915050565b60006020820190508181036000830152610e588184610d7c565b905092915050565b600080fd5b600080fd5b600080fd5b60008083601f840112610e8557610e84610e60565b5b8235905067ffffffffffffffff811115610ea257610ea1610e65565b5b602083019150836020820283011115610ebe57610ebd610e6a565b5b9250929050565b60008083601f840112610edb57610eda610e60565b5b8235905067ffffffffffffffff811115610ef857610ef7610e65565b5b602083019150836020820283011115610f1457610f13610e6a565b5b9250929050565b60008060008060408587031215610f3557610f34610c77565b5b600085013567ffffffffffffffff811115610f5357610f52610c7c565b5b610f5f87828801610e6f565b9450945050602085013567ffffffffffffffff811115610f8257610f81610c7c565b5b610f8e87828801610ec5565b925092505092959194509250565b60008115159050919050565b610fb181610f9c565b82525050565b6000602082019050610fcc6000830184610fa8565b92915050565b600080fd5b7f4e487b7100000000000000000000000000000000000000000000000000000000600052604160045260246000fd5b61100f82610d6b565b810181811067ffffffffffffffff8211171561102e5761102d610fd7565b5b80604052505050565b6000611041610c6d565b905061104d8282611006565b919050565b600067ffffffffffffffff82111561106d5761106c610fd7565b5b61107682610d6b565b9050602081019050919050565b82818337600083830152505050565b60006110a56110a084611052565b611037565b9050828152602081018484840111156110c1576110c0610fd2565b5b6110cc848285611083565b509392505050565b600082601f8301126110e9576110e8610e60565b5b81356110f9848260208601611092565b91505092915050565b60006020828403121561111857611117610c77565b5b600082013567ffffffffffffffff81111561113657611135610c7c565b5b611142848285016110d4565b91505092915050565b61115481610c81565b82525050565b600060208201905061116f600083018461114b565b92915050565b6000806040838503121561118c5761118b610c77565b5b600061119a85828601610ca2565b925050602083013567ffffffffffffffff8111156111bb576111ba610c7c565b5b6111c7858286016110d4565b9150509250929050565b600080fd5b600061014082840312156111ed576111ec6111d1565b5b81905092915050565b60006020828403121561120c5761120b610c77565b5b600082013567ffffffffffffffff81111561122a57611229610c7c565b5b611236848285016111d6565b91505092915050565b7f4e487b7100000000000000000000000000000000000000000000000000000000600052602260045260246000fd5b6000600282049050600182168061128657607f821691505b6020821081036112995761129861123f565b5b50919050565b600081905092915050565b60006112b582610d25565b6112bf818561129f565b93506112cf818560208601610d41565b80840191505092915050565b7f2e00000000000000000000000000000000000000000000000000000000000000600082015250565b600061131160018361129f565b915061131c826112db565b600182019050919050565b600061133382866112aa565b915061133e82611304565b915061134a82856112aa565b915061135582611304565b915061136182846112aa565b9150819050949350505050565b7f4e487b7100000000000000000000000000000000000000000000000000000000600052603260045260246000fd5b600080fd5b600082356001610140038336030381126113bf576113be61139d565b5b80830191505092915050565b60008190508160005260206000209050919050565b60006020601f8301049050919050565b600082821b905092915050565b60006008830261142d7fffffffffffffffffffffffffffffffffffffffffffffffffffffffffffffffff826113f0565b61143786836113f0565b95508019841693508086168417925050509392505050565b6000819050919050565b600061147461146f61146a84610c81565b61144f565b610c81565b9050919050565b6000819050919050565b61148e83611459565b6114a261149a8261147b565b8484546113fd565b825550505050565b600090565b6114b76114aa565b6114c2818484611485565b505050565b5b818110156114e6576114db6000826114af565b6001810190506114c8565b5050565b601f82111561152b576114fc816113cb565b611505846113e0565b81016020851015611514578190505b611528611520856113e0565b8301826114c7565b50505b505050565b600082821c905092915050565b600061154e60001984600802611530565b1980831691505092915050565b6000611567838361153d565b9150826002028217905092915050565b61158082610d25565b67ffffffffffffffff81111561159957611598610fd7565b5b6115a3825461126e565b6115ae8282856114ea565b600060209050601f8311600181146115e157600084156115cf578287015190505b6115d9858261155b565b865550611641565b601f1984166115ef866113cb565b60005b82811015611617578489015182556001820191506020850194506020810190506115f2565b868310156116345784890151611630601f89168261153d565b8355505b6001600288020188555050505b505050505050565b600060408201905061165e600083018561114b565b81810360208301526116708184610d7c565b90509392505050565b7f4e487b7100000000000000000000000000000000000000000000000000000000600052601160045260246000fd5b60006116b382610c81565b91507fffffffffffffffffffffffffffffffffffffffffffffffffffffffffffffffff82036116e5576116e4611679565b5b600182019050919050565b7f4f6e6c7920746865206f776e65722063616e206368616e67652074686520697060008201527f66735f6861736800000000000000000000000000000000000000000000000000602082015250565b600061174c602783610d30565b9150611757826116f0565b604082019050919050565b6000602082019050818103600083015261177b8161173f565b9050919050565b7f4e487b7100000000000000000000000000000000000000000000000000000000600052601260045260246000fdfea264697066735822122037eee59d2f7a52b99f3b31f2cae07970769ea8aefa7323045d9d19dba3664c7d64736f6c63430008130033","opcodes":"PUSH2 0x100 PUSH1 0x40 MSTORE CALLVALUE DUP1 ISZERO PUSH3 0x12 JUMPI PUSH1 0x0 DUP1 REVERT JUMPDEST POP PUSH1 0x40 MLOAD PUSH3 0x1CF3 CODESIZE SUB DUP1 PUSH3 0x1CF3 DUP4 CODECOPY DUP2 DUP2 ADD PUSH1 0x40 MSTORE DUP2 ADD SWAP1 PUSH3 0x38 SWAP2 SWAP1 PUSH3 0x3B7 JUMP JUMPDEST DUP2 PUSH1 0x1 PUSH1 0x3 PUSH1 0x0 DUP3 PUSH1 0x80 DUP2 DUP2 MSTORE POP POP DUP2 PUSH1 0xA0 DUP2 DUP2 MSTORE POP POP DUP1 PUSH1 0xC0 DUP2 DUP2 MSTORE POP POP POP POP POP PUSH1 0x0 PUSH20 0xFFFFFFFFFFFFFFFFFFFFFFFFFFFFFFFFFFFFFFFF AND DUP2 PUSH20 0xFFFFFFFFFFFFFFFFFFFFFFFFFFFFFFFFFFFFFFFF AND SUB PUSH3 0xC1 JUMPI PUSH1 0x40 MLOAD PUSH32 0x83780FFE00000000000000000000000000000000000000000000000000000000 DUP2 MSTORE PUSH1 0x4 ADD PUSH1 0x40 MLOAD DUP1 SWAP2 SUB SWAP1 REVERT JUMPDEST DUP1 PUSH20 0xFFFFFFFFFFFFFFFFFFFFFFFFFFFFFFFFFFFFFFFF AND PUSH1 0xE0 DUP2 PUSH20 0xFFFFFFFFFFFFFFFFFFFFFFFFFFFFFFFFFFFFFFFF AND DUP2 MSTORE POP POP POP PUSH1 0x0 JUMPDEST DUP2 MLOAD DUP2 LT ISZERO PUSH3 0x17B JUMPI PUSH1 0x3 PUSH1 0x2 PUSH1 0x0 DUP5 DUP5 DUP2 MLOAD DUP2 LT PUSH3 0x11F JUMPI PUSH3 0x11E PUSH3 0x41D JUMP JUMPDEST JUMPDEST PUSH1 0x20 MUL PUSH1 0x20 ADD ADD MLOAD PUSH20 0xFFFFFFFFFFFFFFFFFFFFFFFFFFFFFFFFFFFFFFFF AND PUSH20 0xFFFFFFFFFFFFFFFFFFFFFFFFFFFFFFFFFFFFFFFF AND DUP2 MSTORE PUSH1 0x20 ADD SWAP1 DUP2 MSTORE PUSH1 0x20 ADD PUSH1 0x0 KECCAK256 DUP2 SWAP1 SSTORE POP DUP1 DUP1 PUSH3 0x172 SWAP1 PUSH3 0x485 JUMP JUMPDEST SWAP2 POP POP PUSH3 0xF9 JUMP JUMPDEST POP POP POP PUSH3 0x4D2 JUMP JUMPDEST PUSH1 0x0 PUSH1 0x40 MLOAD SWAP1 POP SWAP1 JUMP JUMPDEST PUSH1 0x0 DUP1 REVERT JUMPDEST PUSH1 0x0 DUP1 REVERT JUMPDEST PUSH1 0x0 PUSH20 0xFFFFFFFFFFFFFFFFFFFFFFFFFFFFFFFFFFFFFFFF DUP3 AND SWAP1 POP SWAP2 SWAP1 POP JUMP JUMPDEST PUSH1 0x0 PUSH3 0x1C5 DUP3 PUSH3 0x198 JUMP JUMPDEST SWAP1 POP SWAP2 SWAP1 POP JUMP JUMPDEST PUSH1 0x0 PUSH3 0x1D9 DUP3 PUSH3 0x1B8 JUMP JUMPDEST SWAP1 POP SWAP2 SWAP1 POP JUMP JUMPDEST PUSH3 0x1EB DUP2 PUSH3 0x1CC JUMP JUMPDEST DUP2 EQ PUSH3 0x1F7 JUMPI PUSH1 0x0 DUP1 REVERT JUMPDEST POP JUMP JUMPDEST PUSH1 0x0 DUP2 MLOAD SWAP1 POP PUSH3 0x20B DUP2 PUSH3 0x1E0 JUMP JUMPDEST SWAP3 SWAP2 POP POP JUMP JUMPDEST PUSH1 0x0 DUP1 REVERT JUMPDEST PUSH1 0x0 PUSH1 0x1F NOT PUSH1 0x1F DUP4 ADD AND SWAP1 POP SWAP2 SWAP1 POP JUMP JUMPDEST PUSH32 0x4E487B7100000000000000000000000000000000000000000000000000000000 PUSH1 0x0 MSTORE PUSH1 0x41 PUSH1 0x4 MSTORE PUSH1 0x24 PUSH1 0x0 REVERT JUMPDEST PUSH3 0x261 DUP3 PUSH3 0x216 JUMP JUMPDEST DUP2 ADD DUP2 DUP2 LT PUSH8 0xFFFFFFFFFFFFFFFF DUP3 GT OR ISZERO PUSH3 0x283 JUMPI PUSH3 0x282 PUSH3 0x227 JUMP JUMPDEST JUMPDEST DUP1 PUSH1 0x40 MSTORE POP POP POP JUMP JUMPDEST PUSH1 0x0 PUSH3 0x298 PUSH3 0x184 JUMP JUMPDEST SWAP1 POP PUSH3 0x2A6 DUP3 DUP3 PUSH3 0x256 JUMP JUMPDEST SWAP2 SWAP1 POP JUMP JUMPDEST PUSH1 0x0 PUSH8 0xFFFFFFFFFFFFFFFF DUP3 GT ISZERO PUSH3 0x2C9 JUMPI PUSH3 0x2C8 PUSH3 0x227 JUMP JUMPDEST JUMPDEST PUSH1 0x20 DUP3 MUL SWAP1 POP PUSH1 0x20 DUP2 ADD SWAP1 POP SWAP2 SWAP1 POP JUMP JUMPDEST PUSH1 0x0 DUP1 REVERT JUMPDEST PUSH3 0x2EA DUP2 PUSH3 0x1B8 JUMP JUMPDEST DUP2 EQ PUSH3 0x2F6 JUMPI PUSH1 0x0 DUP1 REVERT JUMPDEST POP JUMP JUMPDEST PUSH1 0x0 DUP2 MLOAD SWAP1 POP PUSH3 0x30A DUP2 PUSH3 0x2DF JUMP JUMPDEST SWAP3 SWAP2 POP POP JUMP JUMPDEST PUSH1 0x0 PUSH3 0x327 PUSH3 0x321 DUP5 PUSH3 0x2AB JUMP JUMPDEST PUSH3 0x28C JUMP JUMPDEST SWAP1 POP DUP1 DUP4 DUP3 MSTORE PUSH1 0x20 DUP3 ADD SWAP1 POP PUSH1 0x20 DUP5 MUL DUP4 ADD DUP6 DUP2 GT ISZERO PUSH3 0x34D JUMPI PUSH3 0x34C PUSH3 0x2DA JUMP JUMPDEST JUMPDEST DUP4 JUMPDEST DUP2 DUP2 LT ISZERO PUSH3 0x37A JUMPI DUP1 PUSH3 0x365 DUP9 DUP3 PUSH3 0x2F9 JUMP JUMPDEST DUP5 MSTORE PUSH1 0x20 DUP5 ADD SWAP4 POP POP PUSH1 0x20 DUP2 ADD SWAP1 POP PUSH3 0x34F JUMP JUMPDEST POP POP POP SWAP4 SWAP3 POP POP POP JUMP JUMPDEST PUSH1 0x0 DUP3 PUSH1 0x1F DUP4 ADD SLT PUSH3 0x39C JUMPI PUSH3 0x39B PUSH3 0x211 JUMP JUMPDEST JUMPDEST DUP2 MLOAD PUSH3 0x3AE DUP5 DUP3 PUSH1 0x20 DUP7 ADD PUSH3 0x310 JUMP JUMPDEST SWAP2 POP POP SWAP3 SWAP2 POP POP JUMP JUMPDEST PUSH1 0x0 DUP1 PUSH1 0x40 DUP4 DUP6 SUB SLT ISZERO PUSH3 0x3D1 JUMPI PUSH3 0x3D0 PUSH3 0x18E JUMP JUMPDEST JUMPDEST PUSH1 0x0 PUSH3 0x3E1 DUP6 DUP3 DUP7 ADD PUSH3 0x1FA JUMP JUMPDEST SWAP3 POP POP PUSH1 0x20 DUP4 ADD MLOAD PUSH8 0xFFFFFFFFFFFFFFFF DUP2 GT ISZERO PUSH3 0x405 JUMPI PUSH3 0x404 PUSH3 0x193 JUMP JUMPDEST JUMPDEST PUSH3 0x413 DUP6 DUP3 DUP7 ADD PUSH3 0x384 JUMP JUMPDEST SWAP2 POP POP SWAP3 POP SWAP3 SWAP1 POP JUMP JUMPDEST PUSH32 0x4E487B7100000000000000000000000000000000000000000000000000000000 PUSH1 0x0 MSTORE PUSH1 0x32 PUSH1 0x4 MSTORE PUSH1 0x24 PUSH1 0x0 REVERT JUMPDEST PUSH32 0x4E487B7100000000000000000000000000000000000000000000000000000000 PUSH1 0x0 MSTORE PUSH1 0x11 PUSH1 0x4 MSTORE PUSH1 0x24 PUSH1 0x0 REVERT JUMPDEST PUSH1 0x0 DUP2 SWAP1 POP SWAP2 SWAP1 POP JUMP JUMPDEST PUSH1 0x0 PUSH3 0x492 DUP3 PUSH3 0x47B JUMP JUMPDEST SWAP2 POP PUSH32 0xFFFFFFFFFFFFFFFFFFFFFFFFFFFFFFFFFFFFFFFFFFFFFFFFFFFFFFFFFFFFFFFF DUP3 SUB PUSH3 0x4C7 JUMPI PUSH3 0x4C6 PUSH3 0x44C JUMP JUMPDEST JUMPDEST PUSH1 0x1 DUP3 ADD SWAP1 POP SWAP2 SWAP1 POP JUMP JUMPDEST PUSH1 0x80 MLOAD PUSH1 0xA0 MLOAD PUSH1 0xC0 MLOAD PUSH1 0xE0 MLOAD PUSH2 0x17E7 PUSH3 0x50C PUSH1 0x0 CODECOPY PUSH1 0x0 PUSH2 0x9A8 ADD MSTORE PUSH1 0x0 PUSH2 0x43D ADD MSTORE PUSH1 0x0 PUSH2 0x414 ADD MSTORE PUSH1 0x0 PUSH2 0x3EB ADD MSTORE PUSH2 0x17E7 PUSH1 0x0 RETURN INVALID PUSH1 0x80 PUSH1 0x40 MSTORE PUSH1 0x4 CALLDATASIZE LT PUSH2 0xA0 JUMPI PUSH1 0x0 CALLDATALOAD PUSH1 0xE0 SHR DUP1 PUSH4 0x95113066 GT PUSH2 0x64 JUMPI DUP1 PUSH4 0x95113066 EQ PUSH2 0x1DC JUMPI DUP1 PUSH4 0xAAC47679 EQ PUSH2 0x219 JUMPI DUP1 PUSH4 0xADEA0E12 EQ PUSH2 0x244 JUMPI DUP1 PUSH4 0xCE46E046 EQ PUSH2 0x26D JUMPI DUP1 PUSH4 0xE49617E1 EQ PUSH2 0x298 JUMPI DUP1 PUSH4 0xE60C3505 EQ PUSH2 0x2C8 JUMPI PUSH2 0xE5 JUMP JUMPDEST DUP1 PUSH4 0x393B6DF3 EQ PUSH2 0xEA JUMPI DUP1 PUSH4 0x53FBD9F7 EQ PUSH2 0x128 JUMPI DUP1 PUSH4 0x54FD4D50 EQ PUSH2 0x151 JUMPI DUP1 PUSH4 0x88E5B2D9 EQ PUSH2 0x17C JUMPI DUP1 PUSH4 0x91DB0B7E EQ PUSH2 0x1AC JUMPI PUSH2 0xE5 JUMP JUMPDEST CALLDATASIZE PUSH2 0xE5 JUMPI PUSH2 0xAD PUSH2 0x2F8 JUMP JUMPDEST PUSH2 0xE3 JUMPI PUSH1 0x40 MLOAD PUSH32 0x1574F9F300000000000000000000000000000000000000000000000000000000 DUP2 MSTORE PUSH1 0x4 ADD PUSH1 0x40 MLOAD DUP1 SWAP2 SUB SWAP1 REVERT JUMPDEST STOP JUMPDEST PUSH1 0x0 DUP1 REVERT JUMPDEST CALLVALUE DUP1 ISZERO PUSH2 0xF6 JUMPI PUSH1 0x0 DUP1 REVERT JUMPDEST POP PUSH2 0x111 PUSH1 0x4 DUP1 CALLDATASIZE SUB DUP2 ADD SWAP1 PUSH2 0x10C SWAP2 SWAP1 PUSH2 0xCB7 JUMP JUMPDEST PUSH2 0x2FD JUMP JUMPDEST PUSH1 0x40 MLOAD PUSH2 0x11F SWAP3 SWAP2 SWAP1 PUSH2 0xDB5 JUMP JUMPDEST PUSH1 0x40 MLOAD DUP1 SWAP2 SUB SWAP1 RETURN JUMPDEST CALLVALUE DUP1 ISZERO PUSH2 0x134 JUMPI PUSH1 0x0 DUP1 REVERT JUMPDEST POP PUSH2 0x14F PUSH1 0x4 DUP1 CALLDATASIZE SUB DUP2 ADD SWAP1 PUSH2 0x14A SWAP2 SWAP1 PUSH2 0xE11 JUMP JUMPDEST PUSH2 0x3E1 JUMP JUMPDEST STOP JUMPDEST CALLVALUE DUP1 ISZERO PUSH2 0x15D JUMPI PUSH1 0x0 DUP1 REVERT JUMPDEST POP PUSH2 0x166 PUSH2 0x3E4 JUMP JUMPDEST PUSH1 0x40 MLOAD PUSH2 0x173 SWAP2 SWAP1 PUSH2 0xE3E JUMP JUMPDEST PUSH1 0x40 MLOAD DUP1 SWAP2 SUB SWAP1 RETURN JUMPDEST PUSH2 0x196 PUSH1 0x4 DUP1 CALLDATASIZE SUB DUP2 ADD SWAP1 PUSH2 0x191 SWAP2 SWAP1 PUSH2 0xF1B JUMP JUMPDEST PUSH2 0x487 JUMP JUMPDEST PUSH1 0x40 MLOAD PUSH2 0x1A3 SWAP2 SWAP1 PUSH2 0xFB7 JUMP JUMPDEST PUSH1 0x40 MLOAD DUP1 SWAP2 SUB SWAP1 RETURN JUMPDEST PUSH2 0x1C6 PUSH1 0x4 DUP1 CALLDATASIZE SUB DUP2 ADD SWAP1 PUSH2 0x1C1 SWAP2 SWAP1 PUSH2 0xF1B JUMP JUMPDEST PUSH2 0x5A2 JUMP JUMPDEST PUSH1 0x40 MLOAD PUSH2 0x1D3 SWAP2 SWAP1 PUSH2 0xFB7 JUMP JUMPDEST PUSH1 0x40 MLOAD DUP1 SWAP2 SUB SWAP1 RETURN JUMPDEST CALLVALUE DUP1 ISZERO PUSH2 0x1E8 JUMPI PUSH1 0x0 DUP1 REVERT JUMPDEST POP PUSH2 0x203 PUSH1 0x4 DUP1 CALLDATASIZE SUB DUP2 ADD SWAP1 PUSH2 0x1FE SWAP2 SWAP1 PUSH2 0x1102 JUMP JUMPDEST PUSH2 0x6BD JUMP JUMPDEST PUSH1 0x40 MLOAD PUSH2 0x210 SWAP2 SWAP1 PUSH2 0x115A JUMP JUMPDEST PUSH1 0x40 MLOAD DUP1 SWAP2 SUB SWAP1 RETURN JUMPDEST CALLVALUE DUP1 ISZERO PUSH2 0x225 JUMPI PUSH1 0x0 DUP1 REVERT JUMPDEST POP PUSH2 0x22E PUSH2 0x7D2 JUMP JUMPDEST PUSH1 0x40 MLOAD PUSH2 0x23B SWAP2 SWAP1 PUSH2 0x115A JUMP JUMPDEST PUSH1 0x40 MLOAD DUP1 SWAP2 SUB SWAP1 RETURN JUMPDEST CALLVALUE DUP1 ISZERO PUSH2 0x250 JUMPI PUSH1 0x0 DUP1 REVERT JUMPDEST POP PUSH2 0x26B PUSH1 0x4 DUP1 CALLDATASIZE SUB DUP2 ADD SWAP1 PUSH2 0x266 SWAP2 SWAP1 PUSH2 0x1175 JUMP JUMPDEST PUSH2 0x7D8 JUMP JUMPDEST STOP JUMPDEST CALLVALUE DUP1 ISZERO PUSH2 0x279 JUMPI PUSH1 0x0 DUP1 REVERT JUMPDEST POP PUSH2 0x282 PUSH2 0x2F8 JUMP JUMPDEST PUSH1 0x40 MLOAD PUSH2 0x28F SWAP2 SWAP1 PUSH2 0xFB7 JUMP JUMPDEST PUSH1 0x40 MLOAD DUP1 SWAP2 SUB SWAP1 RETURN JUMPDEST PUSH2 0x2B2 PUSH1 0x4 DUP1 CALLDATASIZE SUB DUP2 ADD SWAP1 PUSH2 0x2AD SWAP2 SWAP1 PUSH2 0x11F6 JUMP JUMPDEST PUSH2 0x8A2 JUMP JUMPDEST PUSH1 0x40 MLOAD PUSH2 0x2BF SWAP2 SWAP1 PUSH2 0xFB7 JUMP JUMPDEST PUSH1 0x40 MLOAD DUP1 SWAP2 SUB SWAP1 RETURN JUMPDEST PUSH2 0x2E2 PUSH1 0x4 DUP1 CALLDATASIZE SUB DUP2 ADD SWAP1 PUSH2 0x2DD SWAP2 SWAP1 PUSH2 0x11F6 JUMP JUMPDEST PUSH2 0x8BD JUMP JUMPDEST PUSH1 0x40 MLOAD PUSH2 0x2EF SWAP2 SWAP1 PUSH2 0xFB7 JUMP JUMPDEST PUSH1 0x40 MLOAD DUP1 SWAP2 SUB SWAP1 RETURN JUMPDEST PUSH1 0x0 SWAP1 JUMP JUMPDEST PUSH1 0x0 PUSH1 0x60 PUSH1 0x0 DUP1 DUP5 DUP2 MSTORE PUSH1 0x20 ADD SWAP1 DUP2 MSTORE PUSH1 0x20 ADD PUSH1 0x0 KECCAK256 PUSH1 0x0 ADD PUSH1 0x0 SWAP1 SLOAD SWAP1 PUSH2 0x100 EXP SWAP1 DIV PUSH20 0xFFFFFFFFFFFFFFFFFFFFFFFFFFFFFFFFFFFFFFFF AND PUSH1 0x0 DUP1 DUP6 DUP2 MSTORE PUSH1 0x20 ADD SWAP1 DUP2 MSTORE PUSH1 0x20 ADD PUSH1 0x0 KECCAK256 PUSH1 0x1 ADD DUP1 DUP1 SLOAD PUSH2 0x358 SWAP1 PUSH2 0x126E JUMP JUMPDEST DUP1 PUSH1 0x1F ADD PUSH1 0x20 DUP1 SWAP2 DIV MUL PUSH1 0x20 ADD PUSH1 0x40 MLOAD SWAP1 DUP2 ADD PUSH1 0x40 MSTORE DUP1 SWAP3 SWAP2 SWAP1 DUP2 DUP2 MSTORE PUSH1 0x20 ADD DUP3 DUP1 SLOAD PUSH2 0x384 SWAP1 PUSH2 0x126E JUMP JUMPDEST DUP1 ISZERO PUSH2 0x3D1 JUMPI DUP1 PUSH1 0x1F LT PUSH2 0x3A6 JUMPI PUSH2 0x100 DUP1 DUP4 SLOAD DIV MUL DUP4 MSTORE SWAP2 PUSH1 0x20 ADD SWAP2 PUSH2 0x3D1 JUMP JUMPDEST DUP3 ADD SWAP2 SWAP1 PUSH1 0x0 MSTORE PUSH1 0x20 PUSH1 0x0 KECCAK256 SWAP1 JUMPDEST DUP2 SLOAD DUP2 MSTORE SWAP1 PUSH1 0x1 ADD SWAP1 PUSH1 0x20 ADD DUP1 DUP4 GT PUSH2 0x3B4 JUMPI DUP3 SWAP1 SUB PUSH1 0x1F AND DUP3 ADD SWAP2 JUMPDEST POP POP POP POP POP SWAP1 POP SWAP2 POP SWAP2 POP SWAP2 POP SWAP2 JUMP JUMPDEST POP JUMP JUMPDEST PUSH1 0x60 PUSH2 0x40F PUSH32 0x0 PUSH2 0x8D8 JUMP JUMPDEST PUSH2 0x438 PUSH32 0x0 PUSH2 0x8D8 JUMP JUMPDEST PUSH2 0x461 PUSH32 0x0 PUSH2 0x8D8 JUMP JUMPDEST PUSH1 0x40 MLOAD PUSH1 0x20 ADD PUSH2 0x473 SWAP4 SWAP3 SWAP2 SWAP1 PUSH2 0x1327 JUMP JUMPDEST PUSH1 0x40 MLOAD PUSH1 0x20 DUP2 DUP4 SUB SUB DUP2 MSTORE SWAP1 PUSH1 0x40 MSTORE SWAP1 POP SWAP1 JUMP JUMPDEST PUSH1 0x0 PUSH2 0x491 PUSH2 0x9A6 JUMP JUMPDEST PUSH1 0x0 DUP6 DUP6 SWAP1 POP SWAP1 POP DUP4 DUP4 SWAP1 POP DUP2 EQ PUSH2 0x4D5 JUMPI PUSH1 0x40 MLOAD PUSH32 0x947D5A8400000000000000000000000000000000000000000000000000000000 DUP2 MSTORE PUSH1 0x4 ADD PUSH1 0x40 MLOAD DUP1 SWAP2 SUB SWAP1 REVERT JUMPDEST PUSH1 0x0 CALLVALUE SWAP1 POP PUSH1 0x0 JUMPDEST DUP3 DUP2 LT ISZERO PUSH2 0x592 JUMPI PUSH1 0x0 DUP7 DUP7 DUP4 DUP2 DUP2 LT PUSH2 0x4FA JUMPI PUSH2 0x4F9 PUSH2 0x136E JUMP JUMPDEST JUMPDEST SWAP1 POP PUSH1 0x20 MUL ADD CALLDATALOAD SWAP1 POP DUP3 DUP2 GT ISZERO PUSH2 0x53D JUMPI PUSH1 0x40 MLOAD PUSH32 0x1101129400000000000000000000000000000000000000000000000000000000 DUP2 MSTORE PUSH1 0x4 ADD PUSH1 0x40 MLOAD DUP1 SWAP2 SUB SWAP1 REVERT JUMPDEST PUSH2 0x56B DUP10 DUP10 DUP5 DUP2 DUP2 LT PUSH2 0x553 JUMPI PUSH2 0x552 PUSH2 0x136E JUMP JUMPDEST JUMPDEST SWAP1 POP PUSH1 0x20 MUL DUP2 ADD SWAP1 PUSH2 0x565 SWAP2 SWAP1 PUSH2 0x13A2 JUMP JUMPDEST DUP3 PUSH2 0xA2D JUMP JUMPDEST PUSH2 0x57C JUMPI PUSH1 0x0 SWAP5 POP POP POP POP POP PUSH2 0x59A JUMP JUMPDEST DUP1 DUP4 SUB SWAP3 POP POP PUSH2 0x58B DUP2 PUSH2 0xA39 JUMP JUMPDEST SWAP1 POP PUSH2 0x4DD JUMP JUMPDEST POP PUSH1 0x1 SWAP3 POP POP POP JUMPDEST SWAP5 SWAP4 POP POP POP POP JUMP JUMPDEST PUSH1 0x0 PUSH2 0x5AC PUSH2 0x9A6 JUMP JUMPDEST PUSH1 0x0 DUP6 DUP6 SWAP1 POP SWAP1 POP DUP4 DUP4 SWAP1 POP DUP2 EQ PUSH2 0x5F0 JUMPI PUSH1 0x40 MLOAD PUSH32 0x947D5A8400000000000000000000000000000000000000000000000000000000 DUP2 MSTORE PUSH1 0x4 ADD PUSH1 0x40 MLOAD DUP1 SWAP2 SUB SWAP1 REVERT JUMPDEST PUSH1 0x0 CALLVALUE SWAP1 POP PUSH1 0x0 JUMPDEST DUP3 DUP2 LT ISZERO PUSH2 0x6AD JUMPI PUSH1 0x0 DUP7 DUP7 DUP4 DUP2 DUP2 LT PUSH2 0x615 JUMPI PUSH2 0x614 PUSH2 0x136E JUMP JUMPDEST JUMPDEST SWAP1 POP PUSH1 0x20 MUL ADD CALLDATALOAD SWAP1 POP DUP3 DUP2 GT ISZERO PUSH2 0x658 JUMPI PUSH1 0x40 MLOAD PUSH32 0x1101129400000000000000000000000000000000000000000000000000000000 DUP2 MSTORE PUSH1 0x4 ADD PUSH1 0x40 MLOAD DUP1 SWAP2 SUB SWAP1 REVERT JUMPDEST PUSH2 0x686 DUP10 DUP10 DUP5 DUP2 DUP2 LT PUSH2 0x66E JUMPI PUSH2 0x66D PUSH2 0x136E JUMP JUMPDEST JUMPDEST SWAP1 POP PUSH1 0x20 MUL DUP2 ADD SWAP1 PUSH2 0x680 SWAP2 SWAP1 PUSH2 0x13A2 JUMP JUMPDEST DUP3 PUSH2 0xA46 JUMP JUMPDEST PUSH2 0x697 JUMPI PUSH1 0x0 SWAP5 POP POP POP POP POP PUSH2 0x6B5 JUMP JUMPDEST DUP1 DUP4 SUB SWAP3 POP POP PUSH2 0x6A6 DUP2 PUSH2 0xA39 JUMP JUMPDEST SWAP1 POP PUSH2 0x5F8 JUMP JUMPDEST POP PUSH1 0x1 SWAP3 POP POP POP JUMPDEST SWAP5 SWAP4 POP POP POP POP JUMP JUMPDEST PUSH1 0x0 PUSH1 0x40 MLOAD DUP1 PUSH1 0x40 ADD PUSH1 0x40 MSTORE DUP1 CALLER PUSH20 0xFFFFFFFFFFFFFFFFFFFFFFFFFFFFFFFFFFFFFFFF AND DUP2 MSTORE PUSH1 0x20 ADD DUP4 DUP2 MSTORE POP PUSH1 0x0 DUP1 PUSH1 0x1 SLOAD DUP2 MSTORE PUSH1 0x20 ADD SWAP1 DUP2 MSTORE PUSH1 0x20 ADD PUSH1 0x0 KECCAK256 PUSH1 0x0 DUP3 ADD MLOAD DUP2 PUSH1 0x0 ADD PUSH1 0x0 PUSH2 0x100 EXP DUP2 SLOAD DUP2 PUSH20 0xFFFFFFFFFFFFFFFFFFFFFFFFFFFFFFFFFFFFFFFF MUL NOT AND SWAP1 DUP4 PUSH20 0xFFFFFFFFFFFFFFFFFFFFFFFFFFFFFFFFFFFFFFFF AND MUL OR SWAP1 SSTORE POP PUSH1 0x20 DUP3 ADD MLOAD DUP2 PUSH1 0x1 ADD SWAP1 DUP2 PUSH2 0x75A SWAP2 SWAP1 PUSH2 0x1577 JUMP JUMPDEST POP SWAP1 POP POP CALLER PUSH20 0xFFFFFFFFFFFFFFFFFFFFFFFFFFFFFFFFFFFFFFFF AND PUSH32 0x889FDBC17BB0712B856198C101B998B9C25F5A0E6CA0E2307F8201035FEB4446 PUSH1 0x1 SLOAD DUP5 PUSH1 0x40 MLOAD PUSH2 0x7A8 SWAP3 SWAP2 SWAP1 PUSH2 0x1649 JUMP JUMPDEST PUSH1 0x40 MLOAD DUP1 SWAP2 SUB SWAP1 LOG2 PUSH1 0x1 PUSH1 0x0 DUP2 SLOAD DUP1 SWAP3 SWAP2 SWAP1 PUSH2 0x7C3 SWAP1 PUSH2 0x16A8 JUMP JUMPDEST SWAP2 SWAP1 POP SSTORE POP PUSH1 0x1 SLOAD SWAP1 POP SWAP2 SWAP1 POP JUMP JUMPDEST PUSH1 0x1 SLOAD DUP2 JUMP JUMPDEST PUSH1 0x0 DUP1 DUP4 DUP2 MSTORE PUSH1 0x20 ADD SWAP1 DUP2 MSTORE PUSH1 0x20 ADD PUSH1 0x0 KECCAK256 PUSH1 0x0 ADD PUSH1 0x0 SWAP1 SLOAD SWAP1 PUSH2 0x100 EXP SWAP1 DIV PUSH20 0xFFFFFFFFFFFFFFFFFFFFFFFFFFFFFFFFFFFFFFFF AND PUSH20 0xFFFFFFFFFFFFFFFFFFFFFFFFFFFFFFFFFFFFFFFF AND CALLER PUSH20 0xFFFFFFFFFFFFFFFFFFFFFFFFFFFFFFFFFFFFFFFF AND EQ PUSH2 0x87B JUMPI PUSH1 0x40 MLOAD PUSH32 0x8C379A000000000000000000000000000000000000000000000000000000000 DUP2 MSTORE PUSH1 0x4 ADD PUSH2 0x872 SWAP1 PUSH2 0x1762 JUMP JUMPDEST PUSH1 0x40 MLOAD DUP1 SWAP2 SUB SWAP1 REVERT JUMPDEST DUP1 PUSH1 0x0 DUP1 DUP5 DUP2 MSTORE PUSH1 0x20 ADD SWAP1 DUP2 MSTORE PUSH1 0x20 ADD PUSH1 0x0 KECCAK256 PUSH1 0x1 ADD SWAP1 DUP2 PUSH2 0x89D SWAP2 SWAP1 PUSH2 0x1577 JUMP JUMPDEST POP POP POP JUMP JUMPDEST PUSH1 0x0 PUSH2 0x8AC PUSH2 0x9A6 JUMP JUMPDEST PUSH2 0x8B6 DUP3 CALLVALUE PUSH2 0xA2D JUMP JUMPDEST SWAP1 POP SWAP2 SWAP1 POP JUMP JUMPDEST PUSH1 0x0 PUSH2 0x8C7 PUSH2 0x9A6 JUMP JUMPDEST PUSH2 0x8D1 DUP3 CALLVALUE PUSH2 0xA46 JUMP JUMPDEST SWAP1 POP SWAP2 SWAP1 POP JUMP JUMPDEST PUSH1 0x60 PUSH1 0x0 PUSH1 0x1 PUSH2 0x8E7 DUP5 PUSH2 0xB1A JUMP JUMPDEST ADD SWAP1 POP PUSH1 0x0 DUP2 PUSH8 0xFFFFFFFFFFFFFFFF DUP2 GT ISZERO PUSH2 0x906 JUMPI PUSH2 0x905 PUSH2 0xFD7 JUMP JUMPDEST JUMPDEST PUSH1 0x40 MLOAD SWAP1 DUP1 DUP3 MSTORE DUP1 PUSH1 0x1F ADD PUSH1 0x1F NOT AND PUSH1 0x20 ADD DUP3 ADD PUSH1 0x40 MSTORE DUP1 ISZERO PUSH2 0x938 JUMPI DUP2 PUSH1 0x20 ADD PUSH1 0x1 DUP3 MUL DUP1 CALLDATASIZE DUP4 CALLDATACOPY DUP1 DUP3 ADD SWAP2 POP POP SWAP1 POP JUMPDEST POP SWAP1 POP PUSH1 0x0 DUP3 PUSH1 0x20 ADD DUP3 ADD SWAP1 POP JUMPDEST PUSH1 0x1 ISZERO PUSH2 0x99B JUMPI DUP1 DUP1 PUSH1 0x1 SWAP1 SUB SWAP2 POP POP PUSH32 0x3031323334353637383961626364656600000000000000000000000000000000 PUSH1 0xA DUP7 MOD BYTE DUP2 MSTORE8 PUSH1 0xA DUP6 DUP2 PUSH2 0x98F JUMPI PUSH2 0x98E PUSH2 0x1782 JUMP JUMPDEST JUMPDEST DIV SWAP5 POP PUSH1 0x0 DUP6 SUB PUSH2 0x946 JUMPI JUMPDEST DUP2 SWAP4 POP POP POP POP SWAP2 SWAP1 POP JUMP JUMPDEST PUSH32 0x0 PUSH20 0xFFFFFFFFFFFFFFFFFFFFFFFFFFFFFFFFFFFFFFFF AND CALLER PUSH20 0xFFFFFFFFFFFFFFFFFFFFFFFFFFFFFFFFFFFFFFFF AND EQ PUSH2 0xA2B JUMPI PUSH1 0x40 MLOAD PUSH32 0x4CA8886700000000000000000000000000000000000000000000000000000000 DUP2 MSTORE PUSH1 0x4 ADD PUSH1 0x40 MLOAD DUP1 SWAP2 SUB SWAP1 REVERT JUMPDEST JUMP JUMPDEST PUSH1 0x0 PUSH1 0x1 SWAP1 POP SWAP3 SWAP2 POP POP JUMP JUMPDEST PUSH1 0x0 PUSH1 0x1 DUP3 ADD SWAP1 POP SWAP2 SWAP1 POP JUMP JUMPDEST PUSH1 0x0 PUSH1 0x1 PUSH1 0x2 PUSH1 0x0 DUP6 PUSH1 0xE0 ADD PUSH1 0x20 DUP2 ADD SWAP1 PUSH2 0xA61 SWAP2 SWAP1 PUSH2 0xE11 JUMP JUMPDEST PUSH20 0xFFFFFFFFFFFFFFFFFFFFFFFFFFFFFFFFFFFFFFFF AND PUSH20 0xFFFFFFFFFFFFFFFFFFFFFFFFFFFFFFFFFFFFFFFF AND DUP2 MSTORE PUSH1 0x20 ADD SWAP1 DUP2 MSTORE PUSH1 0x20 ADD PUSH1 0x0 KECCAK256 SLOAD LT PUSH2 0xB0F JUMPI PUSH1 0x2 PUSH1 0x0 DUP5 PUSH1 0xE0 ADD PUSH1 0x20 DUP2 ADD SWAP1 PUSH2 0xAB8 SWAP2 SWAP1 PUSH2 0xE11 JUMP JUMPDEST PUSH20 0xFFFFFFFFFFFFFFFFFFFFFFFFFFFFFFFFFFFFFFFF AND PUSH20 0xFFFFFFFFFFFFFFFFFFFFFFFFFFFFFFFFFFFFFFFF AND DUP2 MSTORE PUSH1 0x20 ADD SWAP1 DUP2 MSTORE PUSH1 0x20 ADD PUSH1 0x0 KECCAK256 PUSH1 0x0 DUP2 SLOAD PUSH2 0xAFF SWAP1 PUSH2 0x16A8 JUMP JUMPDEST SWAP2 SWAP1 POP DUP2 SWAP1 SSTORE POP PUSH1 0x1 SWAP1 POP PUSH2 0xB14 JUMP JUMPDEST PUSH1 0x0 SWAP1 POP JUMPDEST SWAP3 SWAP2 POP POP JUMP JUMPDEST PUSH1 0x0 DUP1 PUSH1 0x0 SWAP1 POP PUSH27 0x184F03E93FF9F4DAA797ED6E38ED64BF6A1F010000000000000000 DUP4 LT PUSH2 0xB78 JUMPI PUSH27 0x184F03E93FF9F4DAA797ED6E38ED64BF6A1F010000000000000000 DUP4 DUP2 PUSH2 0xB6E JUMPI PUSH2 0xB6D PUSH2 0x1782 JUMP JUMPDEST JUMPDEST DIV SWAP3 POP PUSH1 0x40 DUP2 ADD SWAP1 POP JUMPDEST PUSH14 0x4EE2D6D415B85ACEF8100000000 DUP4 LT PUSH2 0xBB5 JUMPI PUSH14 0x4EE2D6D415B85ACEF8100000000 DUP4 DUP2 PUSH2 0xBAB JUMPI PUSH2 0xBAA PUSH2 0x1782 JUMP JUMPDEST JUMPDEST DIV SWAP3 POP PUSH1 0x20 DUP2 ADD SWAP1 POP JUMPDEST PUSH7 0x2386F26FC10000 DUP4 LT PUSH2 0xBE4 JUMPI PUSH7 0x2386F26FC10000 DUP4 DUP2 PUSH2 0xBDA JUMPI PUSH2 0xBD9 PUSH2 0x1782 JUMP JUMPDEST JUMPDEST DIV SWAP3 POP PUSH1 0x10 DUP2 ADD SWAP1 POP JUMPDEST PUSH4 0x5F5E100 DUP4 LT PUSH2 0xC0D JUMPI PUSH4 0x5F5E100 DUP4 DUP2 PUSH2 0xC03 JUMPI PUSH2 0xC02 PUSH2 0x1782 JUMP JUMPDEST JUMPDEST DIV SWAP3 POP PUSH1 0x8 DUP2 ADD SWAP1 POP JUMPDEST PUSH2 0x2710 DUP4 LT PUSH2 0xC32 JUMPI PUSH2 0x2710 DUP4 DUP2 PUSH2 0xC28 JUMPI PUSH2 0xC27 PUSH2 0x1782 JUMP JUMPDEST JUMPDEST DIV SWAP3 POP PUSH1 0x4 DUP2 ADD SWAP1 POP JUMPDEST PUSH1 0x64 DUP4 LT PUSH2 0xC55 JUMPI PUSH1 0x64 DUP4 DUP2 PUSH2 0xC4B JUMPI PUSH2 0xC4A PUSH2 0x1782 JUMP JUMPDEST JUMPDEST DIV SWAP3 POP PUSH1 0x2 DUP2 ADD SWAP1 POP JUMPDEST PUSH1 0xA DUP4 LT PUSH2 0xC64 JUMPI PUSH1 0x1 DUP2 ADD SWAP1 POP JUMPDEST DUP1 SWAP2 POP POP SWAP2 SWAP1 POP JUMP JUMPDEST PUSH1 0x0 PUSH1 0x40 MLOAD SWAP1 POP SWAP1 JUMP JUMPDEST PUSH1 0x0 DUP1 REVERT JUMPDEST PUSH1 0x0 DUP1 REVERT JUMPDEST PUSH1 0x0 DUP2 SWAP1 POP SWAP2 SWAP1 POP JUMP JUMPDEST PUSH2 0xC94 DUP2 PUSH2 0xC81 JUMP JUMPDEST DUP2 EQ PUSH2 0xC9F JUMPI PUSH1 0x0 DUP1 REVERT JUMPDEST POP JUMP JUMPDEST PUSH1 0x0 DUP2 CALLDATALOAD SWAP1 POP PUSH2 0xCB1 DUP2 PUSH2 0xC8B JUMP JUMPDEST SWAP3 SWAP2 POP POP JUMP JUMPDEST PUSH1 0x0 PUSH1 0x20 DUP3 DUP5 SUB SLT ISZERO PUSH2 0xCCD JUMPI PUSH2 0xCCC PUSH2 0xC77 JUMP JUMPDEST JUMPDEST PUSH1 0x0 PUSH2 0xCDB DUP5 DUP3 DUP6 ADD PUSH2 0xCA2 JUMP JUMPDEST SWAP2 POP POP SWAP3 SWAP2 POP POP JUMP JUMPDEST PUSH1 0x0 PUSH20 0xFFFFFFFFFFFFFFFFFFFFFFFFFFFFFFFFFFFFFFFF DUP3 AND SWAP1 POP SWAP2 SWAP1 POP JUMP JUMPDEST PUSH1 0x0 PUSH2 0xD0F DUP3 PUSH2 0xCE4 JUMP JUMPDEST SWAP1 POP SWAP2 SWAP1 POP JUMP JUMPDEST PUSH2 0xD1F DUP2 PUSH2 0xD04 JUMP JUMPDEST DUP3 MSTORE POP POP JUMP JUMPDEST PUSH1 0x0 DUP2 MLOAD SWAP1 POP SWAP2 SWAP1 POP JUMP JUMPDEST PUSH1 0x0 DUP3 DUP3 MSTORE PUSH1 0x20 DUP3 ADD SWAP1 POP SWAP3 SWAP2 POP POP JUMP JUMPDEST PUSH1 0x0 JUMPDEST DUP4 DUP2 LT ISZERO PUSH2 0xD5F JUMPI DUP1 DUP3 ADD MLOAD DUP2 DUP5 ADD MSTORE PUSH1 0x20 DUP2 ADD SWAP1 POP PUSH2 0xD44 JUMP JUMPDEST PUSH1 0x0 DUP5 DUP5 ADD MSTORE POP POP POP POP JUMP JUMPDEST PUSH1 0x0 PUSH1 0x1F NOT PUSH1 0x1F DUP4 ADD AND SWAP1 POP SWAP2 SWAP1 POP JUMP JUMPDEST PUSH1 0x0 PUSH2 0xD87 DUP3 PUSH2 0xD25 JUMP JUMPDEST PUSH2 0xD91 DUP2 DUP6 PUSH2 0xD30 JUMP JUMPDEST SWAP4 POP PUSH2 0xDA1 DUP2 DUP6 PUSH1 0x20 DUP7 ADD PUSH2 0xD41 JUMP JUMPDEST PUSH2 0xDAA DUP2 PUSH2 0xD6B JUMP JUMPDEST DUP5 ADD SWAP2 POP POP SWAP3 SWAP2 POP POP JUMP JUMPDEST PUSH1 0x0 PUSH1 0x40 DUP3 ADD SWAP1 POP PUSH2 0xDCA PUSH1 0x0 DUP4 ADD DUP6 PUSH2 0xD16 JUMP JUMPDEST DUP2 DUP2 SUB PUSH1 0x20 DUP4 ADD MSTORE PUSH2 0xDDC DUP2 DUP5 PUSH2 0xD7C JUMP JUMPDEST SWAP1 POP SWAP4 SWAP3 POP POP POP JUMP JUMPDEST PUSH2 0xDEE DUP2 PUSH2 0xD04 JUMP JUMPDEST DUP2 EQ PUSH2 0xDF9 JUMPI PUSH1 0x0 DUP1 REVERT JUMPDEST POP JUMP JUMPDEST PUSH1 0x0 DUP2 CALLDATALOAD SWAP1 POP PUSH2 0xE0B DUP2 PUSH2 0xDE5 JUMP JUMPDEST SWAP3 SWAP2 POP POP JUMP JUMPDEST PUSH1 0x0 PUSH1 0x20 DUP3 DUP5 SUB SLT ISZERO PUSH2 0xE27 JUMPI PUSH2 0xE26 PUSH2 0xC77 JUMP JUMPDEST JUMPDEST PUSH1 0x0 PUSH2 0xE35 DUP5 DUP3 DUP6 ADD PUSH2 0xDFC JUMP JUMPDEST SWAP2 POP POP SWAP3 SWAP2 POP POP JUMP JUMPDEST PUSH1 0x0 PUSH1 0x20 DUP3 ADD SWAP1 POP DUP2 DUP2 SUB PUSH1 0x0 DUP4 ADD MSTORE PUSH2 0xE58 DUP2 DUP5 PUSH2 0xD7C JUMP JUMPDEST SWAP1 POP SWAP3 SWAP2 POP POP JUMP JUMPDEST PUSH1 0x0 DUP1 REVERT JUMPDEST PUSH1 0x0 DUP1 REVERT JUMPDEST PUSH1 0x0 DUP1 REVERT JUMPDEST PUSH1 0x0 DUP1 DUP4 PUSH1 0x1F DUP5 ADD SLT PUSH2 0xE85 JUMPI PUSH2 0xE84 PUSH2 0xE60 JUMP JUMPDEST JUMPDEST DUP3 CALLDATALOAD SWAP1 POP PUSH8 0xFFFFFFFFFFFFFFFF DUP2 GT ISZERO PUSH2 0xEA2 JUMPI PUSH2 0xEA1 PUSH2 0xE65 JUMP JUMPDEST JUMPDEST PUSH1 0x20 DUP4 ADD SWAP2 POP DUP4 PUSH1 0x20 DUP3 MUL DUP4 ADD GT ISZERO PUSH2 0xEBE JUMPI PUSH2 0xEBD PUSH2 0xE6A JUMP JUMPDEST JUMPDEST SWAP3 POP SWAP3 SWAP1 POP JUMP JUMPDEST PUSH1 0x0 DUP1 DUP4 PUSH1 0x1F DUP5 ADD SLT PUSH2 0xEDB JUMPI PUSH2 0xEDA PUSH2 0xE60 JUMP JUMPDEST JUMPDEST DUP3 CALLDATALOAD SWAP1 POP PUSH8 0xFFFFFFFFFFFFFFFF DUP2 GT ISZERO PUSH2 0xEF8 JUMPI PUSH2 0xEF7 PUSH2 0xE65 JUMP JUMPDEST JUMPDEST PUSH1 0x20 DUP4 ADD SWAP2 POP DUP4 PUSH1 0x20 DUP3 MUL DUP4 ADD GT ISZERO PUSH2 0xF14 JUMPI PUSH2 0xF13 PUSH2 0xE6A JUMP JUMPDEST JUMPDEST SWAP3 POP SWAP3 SWAP1 POP JUMP JUMPDEST PUSH1 0x0 DUP1 PUSH1 0x0 DUP1 PUSH1 0x40 DUP6 DUP8 SUB SLT ISZERO PUSH2 0xF35 JUMPI PUSH2 0xF34 PUSH2 0xC77 JUMP JUMPDEST JUMPDEST PUSH1 0x0 DUP6 ADD CALLDATALOAD PUSH8 0xFFFFFFFFFFFFFFFF DUP2 GT ISZERO PUSH2 0xF53 JUMPI PUSH2 0xF52 PUSH2 0xC7C JUMP JUMPDEST JUMPDEST PUSH2 0xF5F DUP8 DUP3 DUP9 ADD PUSH2 0xE6F JUMP JUMPDEST SWAP5 POP SWAP5 POP POP PUSH1 0x20 DUP6 ADD CALLDATALOAD PUSH8 0xFFFFFFFFFFFFFFFF DUP2 GT ISZERO PUSH2 0xF82 JUMPI PUSH2 0xF81 PUSH2 0xC7C JUMP JUMPDEST JUMPDEST PUSH2 0xF8E DUP8 DUP3 DUP9 ADD PUSH2 0xEC5 JUMP JUMPDEST SWAP3 POP SWAP3 POP POP SWAP3 SWAP6 SWAP2 SWAP5 POP SWAP3 POP JUMP JUMPDEST PUSH1 0x0 DUP2 ISZERO ISZERO SWAP1 POP SWAP2 SWAP1 POP JUMP JUMPDEST PUSH2 0xFB1 DUP2 PUSH2 0xF9C JUMP JUMPDEST DUP3 MSTORE POP POP JUMP JUMPDEST PUSH1 0x0 PUSH1 0x20 DUP3 ADD SWAP1 POP PUSH2 0xFCC PUSH1 0x0 DUP4 ADD DUP5 PUSH2 0xFA8 JUMP JUMPDEST SWAP3 SWAP2 POP POP JUMP JUMPDEST PUSH1 0x0 DUP1 REVERT JUMPDEST PUSH32 0x4E487B7100000000000000000000000000000000000000000000000000000000 PUSH1 0x0 MSTORE PUSH1 0x41 PUSH1 0x4 MSTORE PUSH1 0x24 PUSH1 0x0 REVERT JUMPDEST PUSH2 0x100F DUP3 PUSH2 0xD6B JUMP JUMPDEST DUP2 ADD DUP2 DUP2 LT PUSH8 0xFFFFFFFFFFFFFFFF DUP3 GT OR ISZERO PUSH2 0x102E JUMPI PUSH2 0x102D PUSH2 0xFD7 JUMP JUMPDEST JUMPDEST DUP1 PUSH1 0x40 MSTORE POP POP POP JUMP JUMPDEST PUSH1 0x0 PUSH2 0x1041 PUSH2 0xC6D JUMP JUMPDEST SWAP1 POP PUSH2 0x104D DUP3 DUP3 PUSH2 0x1006 JUMP JUMPDEST SWAP2 SWAP1 POP JUMP JUMPDEST PUSH1 0x0 PUSH8 0xFFFFFFFFFFFFFFFF DUP3 GT ISZERO PUSH2 0x106D JUMPI PUSH2 0x106C PUSH2 0xFD7 JUMP JUMPDEST JUMPDEST PUSH2 0x1076 DUP3 PUSH2 0xD6B JUMP JUMPDEST SWAP1 POP PUSH1 0x20 DUP2 ADD SWAP1 POP SWAP2 SWAP1 POP JUMP JUMPDEST DUP3 DUP2 DUP4 CALLDATACOPY PUSH1 0x0 DUP4 DUP4 ADD MSTORE POP POP POP JUMP JUMPDEST PUSH1 0x0 PUSH2 0x10A5 PUSH2 0x10A0 DUP5 PUSH2 0x1052 JUMP JUMPDEST PUSH2 0x1037 JUMP JUMPDEST SWAP1 POP DUP3 DUP2 MSTORE PUSH1 0x20 DUP2 ADD DUP5 DUP5 DUP5 ADD GT ISZERO PUSH2 0x10C1 JUMPI PUSH2 0x10C0 PUSH2 0xFD2 JUMP JUMPDEST JUMPDEST PUSH2 0x10CC DUP5 DUP3 DUP6 PUSH2 0x1083 JUMP JUMPDEST POP SWAP4 SWAP3 POP POP POP JUMP JUMPDEST PUSH1 0x0 DUP3 PUSH1 0x1F DUP4 ADD SLT PUSH2 0x10E9 JUMPI PUSH2 0x10E8 PUSH2 0xE60 JUMP JUMPDEST JUMPDEST DUP2 CALLDATALOAD PUSH2 0x10F9 DUP5 DUP3 PUSH1 0x20 DUP7 ADD PUSH2 0x1092 JUMP JUMPDEST SWAP2 POP POP SWAP3 SWAP2 POP POP JUMP JUMPDEST PUSH1 0x0 PUSH1 0x20 DUP3 DUP5 SUB SLT ISZERO PUSH2 0x1118 JUMPI PUSH2 0x1117 PUSH2 0xC77 JUMP JUMPDEST JUMPDEST PUSH1 0x0 DUP3 ADD CALLDATALOAD PUSH8 0xFFFFFFFFFFFFFFFF DUP2 GT ISZERO PUSH2 0x1136 JUMPI PUSH2 0x1135 PUSH2 0xC7C JUMP JUMPDEST JUMPDEST PUSH2 0x1142 DUP5 DUP3 DUP6 ADD PUSH2 0x10D4 JUMP JUMPDEST SWAP2 POP POP SWAP3 SWAP2 POP POP JUMP JUMPDEST PUSH2 0x1154 DUP2 PUSH2 0xC81 JUMP JUMPDEST DUP3 MSTORE POP POP JUMP JUMPDEST PUSH1 0x0 PUSH1 0x20 DUP3 ADD SWAP1 POP PUSH2 0x116F PUSH1 0x0 DUP4 ADD DUP5 PUSH2 0x114B JUMP JUMPDEST SWAP3 SWAP2 POP POP JUMP JUMPDEST PUSH1 0x0 DUP1 PUSH1 0x40 DUP4 DUP6 SUB SLT ISZERO PUSH2 0x118C JUMPI PUSH2 0x118B PUSH2 0xC77 JUMP JUMPDEST JUMPDEST PUSH1 0x0 PUSH2 0x119A DUP6 DUP3 DUP7 ADD PUSH2 0xCA2 JUMP JUMPDEST SWAP3 POP POP PUSH1 0x20 DUP4 ADD CALLDATALOAD PUSH8 0xFFFFFFFFFFFFFFFF DUP2 GT ISZERO PUSH2 0x11BB JUMPI PUSH2 0x11BA PUSH2 0xC7C JUMP JUMPDEST JUMPDEST PUSH2 0x11C7 DUP6 DUP3 DUP7 ADD PUSH2 0x10D4 JUMP JUMPDEST SWAP2 POP POP SWAP3 POP SWAP3 SWAP1 POP JUMP JUMPDEST PUSH1 0x0 DUP1 REVERT JUMPDEST PUSH1 0x0 PUSH2 0x140 DUP3 DUP5 SUB SLT ISZERO PUSH2 0x11ED JUMPI PUSH2 0x11EC PUSH2 0x11D1 JUMP JUMPDEST JUMPDEST DUP2 SWAP1 POP SWAP3 SWAP2 POP POP JUMP JUMPDEST PUSH1 0x0 PUSH1 0x20 DUP3 DUP5 SUB SLT ISZERO PUSH2 0x120C JUMPI PUSH2 0x120B PUSH2 0xC77 JUMP JUMPDEST JUMPDEST PUSH1 0x0 DUP3 ADD CALLDATALOAD PUSH8 0xFFFFFFFFFFFFFFFF DUP2 GT ISZERO PUSH2 0x122A JUMPI PUSH2 0x1229 PUSH2 0xC7C JUMP JUMPDEST JUMPDEST PUSH2 0x1236 DUP5 DUP3 DUP6 ADD PUSH2 0x11D6 JUMP JUMPDEST SWAP2 POP POP SWAP3 SWAP2 POP POP JUMP JUMPDEST PUSH32 0x4E487B7100000000000000000000000000000000000000000000000000000000 PUSH1 0x0 MSTORE PUSH1 0x22 PUSH1 0x4 MSTORE PUSH1 0x24 PUSH1 0x0 REVERT JUMPDEST PUSH1 0x0 PUSH1 0x2 DUP3 DIV SWAP1 POP PUSH1 0x1 DUP3 AND DUP1 PUSH2 0x1286 JUMPI PUSH1 0x7F DUP3 AND SWAP2 POP JUMPDEST PUSH1 0x20 DUP3 LT DUP2 SUB PUSH2 0x1299 JUMPI PUSH2 0x1298 PUSH2 0x123F JUMP JUMPDEST JUMPDEST POP SWAP2 SWAP1 POP JUMP JUMPDEST PUSH1 0x0 DUP2 SWAP1 POP SWAP3 SWAP2 POP POP JUMP JUMPDEST PUSH1 0x0 PUSH2 0x12B5 DUP3 PUSH2 0xD25 JUMP JUMPDEST PUSH2 0x12BF DUP2 DUP6 PUSH2 0x129F JUMP JUMPDEST SWAP4 POP PUSH2 0x12CF DUP2 DUP6 PUSH1 0x20 DUP7 ADD PUSH2 0xD41 JUMP JUMPDEST DUP1 DUP5 ADD SWAP2 POP POP SWAP3 SWAP2 POP POP JUMP JUMPDEST PUSH32 0x2E00000000000000000000000000000000000000000000000000000000000000 PUSH1 0x0 DUP3 ADD MSTORE POP JUMP JUMPDEST PUSH1 0x0 PUSH2 0x1311 PUSH1 0x1 DUP4 PUSH2 0x129F JUMP JUMPDEST SWAP2 POP PUSH2 0x131C DUP3 PUSH2 0x12DB JUMP JUMPDEST PUSH1 0x1 DUP3 ADD SWAP1 POP SWAP2 SWAP1 POP JUMP JUMPDEST PUSH1 0x0 PUSH2 0x1333 DUP3 DUP7 PUSH2 0x12AA JUMP JUMPDEST SWAP2 POP PUSH2 0x133E DUP3 PUSH2 0x1304 JUMP JUMPDEST SWAP2 POP PUSH2 0x134A DUP3 DUP6 PUSH2 0x12AA JUMP JUMPDEST SWAP2 POP PUSH2 0x1355 DUP3 PUSH2 0x1304 JUMP JUMPDEST SWAP2 POP PUSH2 0x1361 DUP3 DUP5 PUSH2 0x12AA JUMP JUMPDEST SWAP2 POP DUP2 SWAP1 POP SWAP5 SWAP4 POP POP POP POP JUMP JUMPDEST PUSH32 0x4E487B7100000000000000000000000000000000000000000000000000000000 PUSH1 0x0 MSTORE PUSH1 0x32 PUSH1 0x4 MSTORE PUSH1 0x24 PUSH1 0x0 REVERT JUMPDEST PUSH1 0x0 DUP1 REVERT JUMPDEST PUSH1 0x0 DUP3 CALLDATALOAD PUSH1 0x1 PUSH2 0x140 SUB DUP4 CALLDATASIZE SUB SUB DUP2 SLT PUSH2 0x13BF JUMPI PUSH2 0x13BE PUSH2 0x139D JUMP JUMPDEST JUMPDEST DUP1 DUP4 ADD SWAP2 POP POP SWAP3 SWAP2 POP POP JUMP JUMPDEST PUSH1 0x0 DUP2 SWAP1 POP DUP2 PUSH1 0x0 MSTORE PUSH1 0x20 PUSH1 0x0 KECCAK256 SWAP1 POP SWAP2 SWAP1 POP JUMP JUMPDEST PUSH1 0x0 PUSH1 0x20 PUSH1 0x1F DUP4 ADD DIV SWAP1 POP SWAP2 SWAP1 POP JUMP JUMPDEST PUSH1 0x0 DUP3 DUP3 SHL SWAP1 POP SWAP3 SWAP2 POP POP JUMP JUMPDEST PUSH1 0x0 PUSH1 0x8 DUP4 MUL PUSH2 0x142D PUSH32 0xFFFFFFFFFFFFFFFFFFFFFFFFFFFFFFFFFFFFFFFFFFFFFFFFFFFFFFFFFFFFFFFF DUP3 PUSH2 0x13F0 JUMP JUMPDEST PUSH2 0x1437 DUP7 DUP4 PUSH2 0x13F0 JUMP JUMPDEST SWAP6 POP DUP1 NOT DUP5 AND SWAP4 POP DUP1 DUP7 AND DUP5 OR SWAP3 POP POP POP SWAP4 SWAP3 POP POP POP JUMP JUMPDEST PUSH1 0x0 DUP2 SWAP1 POP SWAP2 SWAP1 POP JUMP JUMPDEST PUSH1 0x0 PUSH2 0x1474 PUSH2 0x146F PUSH2 0x146A DUP5 PUSH2 0xC81 JUMP JUMPDEST PUSH2 0x144F JUMP JUMPDEST PUSH2 0xC81 JUMP JUMPDEST SWAP1 POP SWAP2 SWAP1 POP JUMP JUMPDEST PUSH1 0x0 DUP2 SWAP1 POP SWAP2 SWAP1 POP JUMP JUMPDEST PUSH2 0x148E DUP4 PUSH2 0x1459 JUMP JUMPDEST PUSH2 0x14A2 PUSH2 0x149A DUP3 PUSH2 0x147B JUMP JUMPDEST DUP5 DUP5 SLOAD PUSH2 0x13FD JUMP JUMPDEST DUP3 SSTORE POP POP POP POP JUMP JUMPDEST PUSH1 0x0 SWAP1 JUMP JUMPDEST PUSH2 0x14B7 PUSH2 0x14AA JUMP JUMPDEST PUSH2 0x14C2 DUP2 DUP5 DUP5 PUSH2 0x1485 JUMP JUMPDEST POP POP POP JUMP JUMPDEST JUMPDEST DUP2 DUP2 LT ISZERO PUSH2 0x14E6 JUMPI PUSH2 0x14DB PUSH1 0x0 DUP3 PUSH2 0x14AF JUMP JUMPDEST PUSH1 0x1 DUP2 ADD SWAP1 POP PUSH2 0x14C8 JUMP JUMPDEST POP POP JUMP JUMPDEST PUSH1 0x1F DUP3 GT ISZERO PUSH2 0x152B JUMPI PUSH2 0x14FC DUP2 PUSH2 0x13CB JUMP JUMPDEST PUSH2 0x1505 DUP5 PUSH2 0x13E0 JUMP JUMPDEST DUP2 ADD PUSH1 0x20 DUP6 LT ISZERO PUSH2 0x1514 JUMPI DUP2 SWAP1 POP JUMPDEST PUSH2 0x1528 PUSH2 0x1520 DUP6 PUSH2 0x13E0 JUMP JUMPDEST DUP4 ADD DUP3 PUSH2 0x14C7 JUMP JUMPDEST POP POP JUMPDEST POP POP POP JUMP JUMPDEST PUSH1 0x0 DUP3 DUP3 SHR SWAP1 POP SWAP3 SWAP2 POP POP JUMP JUMPDEST PUSH1 0x0 PUSH2 0x154E PUSH1 0x0 NOT DUP5 PUSH1 0x8 MUL PUSH2 0x1530 JUMP JUMPDEST NOT DUP1 DUP4 AND SWAP2 POP POP SWAP3 SWAP2 POP POP JUMP JUMPDEST PUSH1 0x0 PUSH2 0x1567 DUP4 DUP4 PUSH2 0x153D JUMP JUMPDEST SWAP2 POP DUP3 PUSH1 0x2 MUL DUP3 OR SWAP1 POP SWAP3 SWAP2 POP POP JUMP JUMPDEST PUSH2 0x1580 DUP3 PUSH2 0xD25 JUMP JUMPDEST PUSH8 0xFFFFFFFFFFFFFFFF DUP2 GT ISZERO PUSH2 0x1599 JUMPI PUSH2 0x1598 PUSH2 0xFD7 JUMP JUMPDEST JUMPDEST PUSH2 0x15A3 DUP3 SLOAD PUSH2 0x126E JUMP JUMPDEST PUSH2 0x15AE DUP3 DUP3 DUP6 PUSH2 0x14EA JUMP JUMPDEST PUSH1 0x0 PUSH1 0x20 SWAP1 POP PUSH1 0x1F DUP4 GT PUSH1 0x1 DUP2 EQ PUSH2 0x15E1 JUMPI PUSH1 0x0 DUP5 ISZERO PUSH2 0x15CF JUMPI DUP3 DUP8 ADD MLOAD SWAP1 POP JUMPDEST PUSH2 0x15D9 DUP6 DUP3 PUSH2 0x155B JUMP JUMPDEST DUP7 SSTORE POP PUSH2 0x1641 JUMP JUMPDEST PUSH1 0x1F NOT DUP5 AND PUSH2 0x15EF DUP7 PUSH2 0x13CB JUMP JUMPDEST PUSH1 0x0 JUMPDEST DUP3 DUP2 LT ISZERO PUSH2 0x1617 JUMPI DUP5 DUP10 ADD MLOAD DUP3 SSTORE PUSH1 0x1 DUP3 ADD SWAP2 POP PUSH1 0x20 DUP6 ADD SWAP5 POP PUSH1 0x20 DUP2 ADD SWAP1 POP PUSH2 0x15F2 JUMP JUMPDEST DUP7 DUP4 LT ISZERO PUSH2 0x1634 JUMPI DUP5 DUP10 ADD MLOAD PUSH2 0x1630 PUSH1 0x1F DUP10 AND DUP3 PUSH2 0x153D JUMP JUMPDEST DUP4 SSTORE POP JUMPDEST PUSH1 0x1 PUSH1 0x2 DUP9 MUL ADD DUP9 SSTORE POP POP POP JUMPDEST POP POP POP POP POP POP JUMP JUMPDEST PUSH1 0x0 PUSH1 0x40 DUP3 ADD SWAP1 POP PUSH2 0x165E PUSH1 0x0 DUP4 ADD DUP6 PUSH2 0x114B JUMP JUMPDEST DUP2 DUP2 SUB PUSH1 0x20 DUP4 ADD MSTORE PUSH2 0x1670 DUP2 DUP5 PUSH2 0xD7C JUMP JUMPDEST SWAP1 POP SWAP4 SWAP3 POP POP POP JUMP JUMPDEST PUSH32 0x4E487B7100000000000000000000000000000000000000000000000000000000 PUSH1 0x0 MSTORE PUSH1 0x11 PUSH1 0x4 MSTORE PUSH1 0x24 PUSH1 0x0 REVERT JUMPDEST PUSH1 0x0 PUSH2 0x16B3 DUP3 PUSH2 0xC81 JUMP JUMPDEST SWAP2 POP PUSH32 0xFFFFFFFFFFFFFFFFFFFFFFFFFFFFFFFFFFFFFFFFFFFFFFFFFFFFFFFFFFFFFFFF DUP3 SUB PUSH2 0x16E5 JUMPI PUSH2 0x16E4 PUSH2 0x1679 JUMP JUMPDEST JUMPDEST PUSH1 0x1 DUP3 ADD SWAP1 POP SWAP2 SWAP1 POP JUMP JUMPDEST PUSH32 0x4F6E6C7920746865206F776E65722063616E206368616E676520746865206970 PUSH1 0x0 DUP3 ADD MSTORE PUSH32 0x66735F6861736800000000000000000000000000000000000000000000000000 PUSH1 0x20 DUP3 ADD MSTORE POP JUMP JUMPDEST PUSH1 0x0 PUSH2 0x174C PUSH1 0x27 DUP4 PUSH2 0xD30 JUMP JUMPDEST SWAP2 POP PUSH2 0x1757 DUP3 PUSH2 0x16F0 JUMP JUMPDEST PUSH1 0x40 DUP3 ADD SWAP1 POP SWAP2 SWAP1 POP JUMP JUMPDEST PUSH1 0x0 PUSH1 0x20 DUP3 ADD SWAP1 POP DUP2 DUP2 SUB PUSH1 0x0 DUP4 ADD MSTORE PUSH2 0x177B DUP2 PUSH2 0x173F JUMP JUMPDEST SWAP1 POP SWAP2 SWAP1 POP JUMP JUMPDEST PUSH32 0x4E487B7100000000000000000000000000000000000000000000000000000000 PUSH1 0x0 MSTORE PUSH1 0x12 PUSH1 0x4 MSTORE PUSH1 0x24 PUSH1 0x0 REVERT INVALID LOG2 PUSH5 0x6970667358 0x22 SLT KECCAK256 CALLDATACOPY 0xEE 0xE5 SWAP14 0x2F PUSH27 0x52B99F3B31F2CAE07970769EA8AEFA7323045D9D19DBA3664C7D64 PUSH20 0x6F6C634300081300330000000000000000000000 "},"methodIdentifiers":{"attest((bytes32,bytes32,uint64,uint64,uint64,bytes32,address,address,bool,bytes))":"e60c3505","changeIpfsHash(uint256,string)":"adea0e12","createLink(string)":"95113066","getLink(uint256)":"393b6df3","isPayable()":"ce46e046","linkCount()":"aac47679","multiAttest((bytes32,bytes32,uint64,uint64,uint64,bytes32,address,address,bool,bytes)[],uint256[])":"91db0b7e","multiRevoke((bytes32,bytes32,uint64,uint64,uint64,bytes32,address,address,bool,bytes)[],uint256[])":"88e5b2d9","revoke((bytes32,bytes32,uint64,uint64,uint64,bytes32,address,address,bool,bytes))":"e49617e1","version()":"54fd4d50","voteAttester(address)":"53fbd9f7"}}}}}